{
  "contractName": "NewVotingContract",
  "abi": [
    {
      "inputs": [
        {
          "internalType": "address",
          "name": "_tokenAddress",
          "type": "address"
        }
      ],
      "payable": false,
      "stateMutability": "nonpayable",
      "type": "constructor"
    },
    {
      "anonymous": false,
      "inputs": [
        {
          "indexed": false,
          "internalType": "address",
          "name": "account",
          "type": "address"
        },
        {
          "indexed": false,
          "internalType": "uint256",
          "name": "balance",
          "type": "uint256"
        }
      ],
      "name": "CheckTokenBalance",
      "type": "event"
    },
    {
      "anonymous": false,
      "inputs": [
        {
          "indexed": false,
          "internalType": "uint256",
          "name": "activeStack",
          "type": "uint256"
        }
      ],
      "name": "NewStack",
      "type": "event"
    },
    {
      "anonymous": false,
      "inputs": [
        {
          "indexed": false,
          "internalType": "uint256",
          "name": "requirement",
          "type": "uint256"
        },
        {
          "indexed": false,
          "internalType": "uint256",
          "name": "defaultR",
          "type": "uint256"
        },
        {
          "indexed": false,
          "internalType": "uint256",
          "name": "total",
          "type": "uint256"
        }
      ],
      "name": "WinningStake",
      "type": "event"
    },
    {
      "anonymous": false,
      "inputs": [
        {
          "indexed": false,
          "internalType": "address",
          "name": "depositer",
          "type": "address"
        },
        {
          "indexed": false,
          "internalType": "uint256",
          "name": "tokenAmount",
          "type": "uint256"
        }
      ],
      "name": "tokensDeposited",
      "type": "event"
    },
    {
      "constant": true,
      "inputs": [
        {
          "internalType": "uint256",
          "name": "",
          "type": "uint256"
        }
      ],
      "name": "acceptedProposal",
      "outputs": [
        {
          "internalType": "address",
          "name": "",
          "type": "address"
        }
      ],
      "payable": false,
      "stateMutability": "view",
      "type": "function"
    },
    {
      "constant": true,
      "inputs": [],
      "name": "activeStack",
      "outputs": [
        {
          "internalType": "uint256",
          "name": "",
          "type": "uint256"
        }
      ],
      "payable": false,
      "stateMutability": "view",
      "type": "function"
    },
    {
      "constant": true,
      "inputs": [],
      "name": "number",
      "outputs": [
        {
          "internalType": "uint256",
          "name": "",
          "type": "uint256"
        }
      ],
      "payable": false,
      "stateMutability": "view",
      "type": "function"
    },
    {
      "constant": true,
      "inputs": [],
      "name": "owner",
      "outputs": [
        {
          "internalType": "address",
          "name": "",
          "type": "address"
        }
      ],
      "payable": false,
      "stateMutability": "view",
      "type": "function"
    },
    {
      "constant": true,
      "inputs": [
        {
          "internalType": "uint256",
          "name": "",
          "type": "uint256"
        }
      ],
      "name": "proposalAddress",
      "outputs": [
        {
          "internalType": "address",
          "name": "",
          "type": "address"
        }
      ],
      "payable": false,
      "stateMutability": "view",
      "type": "function"
    },
    {
      "constant": true,
      "inputs": [],
      "name": "proposalCount",
      "outputs": [
        {
          "internalType": "uint256",
          "name": "",
          "type": "uint256"
        }
      ],
      "payable": false,
      "stateMutability": "view",
      "type": "function"
    },
    {
      "constant": true,
      "inputs": [
        {
          "internalType": "uint256",
          "name": "",
          "type": "uint256"
        }
      ],
      "name": "proposalStackArray",
      "outputs": [
        {
          "internalType": "uint256",
          "name": "proposalCount",
          "type": "uint256"
        },
        {
          "internalType": "string",
          "name": "openDate",
          "type": "string"
        },
        {
          "internalType": "string",
          "name": "expirationDate",
          "type": "string"
        },
        {
          "internalType": "uint256",
          "name": "expiration",
          "type": "uint256"
        },
        {
          "internalType": "bool",
          "name": "isActive",
          "type": "bool"
        },
        {
          "internalType": "uint256",
          "name": "voteCounter",
          "type": "uint256"
        },
        {
          "internalType": "uint256",
          "name": "stackReward",
          "type": "uint256"
        },
        {
          "internalType": "uint256",
          "name": "number",
          "type": "uint256"
        },
        {
          "internalType": "uint256",
          "name": "winningStakeAvailable",
          "type": "uint256"
        }
      ],
      "payable": false,
      "stateMutability": "view",
      "type": "function"
    },
    {
      "constant": true,
      "inputs": [
        {
          "internalType": "address",
          "name": "",
          "type": "address"
        }
      ],
      "name": "proposals",
      "outputs": [
        {
          "internalType": "uint256",
          "name": "id",
          "type": "uint256"
        },
        {
          "internalType": "address",
          "name": "proposalOwner",
          "type": "address"
        },
        {
          "internalType": "uint256",
          "name": "voteCount",
          "type": "uint256"
        },
        {
          "internalType": "uint256",
          "name": "countYes",
          "type": "uint256"
        },
        {
          "internalType": "uint256",
          "name": "countNo",
          "type": "uint256"
        },
        {
          "internalType": "string",
          "name": "proposalName",
          "type": "string"
        },
        {
          "internalType": "string",
          "name": "proposalDesc",
          "type": "string"
        },
        {
          "internalType": "uint256",
          "name": "proposalRequirement",
          "type": "uint256"
        },
        {
          "internalType": "bool",
          "name": "proposalRegistered",
          "type": "bool"
        },
        {
          "internalType": "bool",
          "name": "accepted",
          "type": "bool"
        },
        {
          "internalType": "uint256",
          "name": "stack",
          "type": "uint256"
        }
      ],
      "payable": false,
      "stateMutability": "view",
      "type": "function"
    },
    {
      "constant": false,
      "inputs": [
        {
          "internalType": "uint256",
          "name": "newNumber",
          "type": "uint256"
        }
      ],
      "name": "setNumber",
      "outputs": [
        {
          "internalType": "bool",
          "name": "",
          "type": "bool"
        },
        {
          "internalType": "uint256",
          "name": "",
          "type": "uint256"
        }
      ],
      "payable": false,
      "stateMutability": "nonpayable",
      "type": "function"
    },
    {
      "constant": false,
      "inputs": [
        {
          "internalType": "string",
          "name": "_openDate",
          "type": "string"
        },
        {
          "internalType": "string",
          "name": "_expirationDate",
          "type": "string"
        },
        {
          "internalType": "uint256",
          "name": "_expiration",
          "type": "uint256"
        },
        {
          "internalType": "uint256",
          "name": "_stackReward",
          "type": "uint256"
        }
      ],
      "name": "newProposalStack",
      "outputs": [
        {
          "internalType": "uint256",
          "name": "",
          "type": "uint256"
        }
      ],
      "payable": false,
      "stateMutability": "nonpayable",
      "type": "function"
    },
    {
      "constant": false,
      "inputs": [
        {
          "internalType": "uint256",
          "name": "stackNumber",
          "type": "uint256"
        }
      ],
      "name": "getProposalsByStack",
      "outputs": [
        {
          "internalType": "uint256",
          "name": "",
          "type": "uint256"
        },
        {
          "internalType": "uint256",
          "name": "",
          "type": "uint256"
        },
        {
          "internalType": "bool",
          "name": "",
          "type": "bool"
        }
      ],
      "payable": false,
      "stateMutability": "nonpayable",
      "type": "function"
    },
    {
      "constant": false,
      "inputs": [
        {
          "internalType": "uint256",
          "name": "_stackNumber",
          "type": "uint256"
        }
      ],
      "name": "getProposalListByStack",
      "outputs": [
        {
          "internalType": "address[]",
          "name": "",
          "type": "address[]"
        },
        {
          "internalType": "string[]",
          "name": "",
          "type": "string[]"
        },
        {
          "internalType": "string[]",
          "name": "",
          "type": "string[]"
        },
        {
          "internalType": "uint256[]",
          "name": "",
          "type": "uint256[]"
        },
        {
          "internalType": "uint256[]",
          "name": "",
          "type": "uint256[]"
        },
        {
          "internalType": "uint256[]",
          "name": "",
          "type": "uint256[]"
        }
      ],
      "payable": false,
      "stateMutability": "nonpayable",
      "type": "function"
    },
    {
      "constant": false,
      "inputs": [
        {
          "internalType": "uint256",
          "name": "_currentDate",
          "type": "uint256"
        },
        {
          "internalType": "string",
          "name": "_description",
          "type": "string"
        },
        {
          "internalType": "uint256",
          "name": "_proposalRequirement",
          "type": "uint256"
        },
        {
          "internalType": "string",
          "name": "_name",
          "type": "string"
        }
      ],
      "name": "registerProposal",
      "outputs": [
        {
          "internalType": "uint256",
          "name": "",
          "type": "uint256"
        }
      ],
      "payable": false,
      "stateMutability": "nonpayable",
      "type": "function"
    },
    {
      "constant": false,
      "inputs": [
        {
          "internalType": "address",
          "name": "proposalAddressToVote",
          "type": "address"
        },
        {
          "internalType": "bool",
          "name": "support",
          "type": "bool"
        },
        {
          "internalType": "uint256",
          "name": "_currentDate",
          "type": "uint256"
        }
      ],
      "name": "castVote",
      "outputs": [
        {
          "internalType": "uint256",
          "name": "",
          "type": "uint256"
        }
      ],
      "payable": false,
      "stateMutability": "nonpayable",
      "type": "function"
    },
    {
      "constant": false,
      "inputs": [],
      "name": "reviewWinningProposals",
      "outputs": [
        {
          "internalType": "uint256",
          "name": "",
          "type": "uint256"
        }
      ],
      "payable": false,
      "stateMutability": "nonpayable",
      "type": "function"
    }
  ],
  "bytecode": "0x608060405260006006556000600b553480156200001b57600080fd5b5060405162004bea38038062004bea833981810160405262000041919081019062000158565b33600760006101000a81548173ffffffffffffffffffffffffffffffffffffffff021916908373ffffffffffffffffffffffffffffffffffffffff16021790555080600860006101000a81548173ffffffffffffffffffffffffffffffffffffffff021916908373ffffffffffffffffffffffffffffffffffffffff1602179055506000600281905550600a600b819055506040518060a001604052806103e881526020016101f481526020016033815260200161271081526020016103e8815250600c600082015181600001556020820151816001015560408201518160020155606082015181600301556080820151816004015590505050620001d2565b6000815190506200015281620001b8565b92915050565b6000602082840312156200016b57600080fd5b60006200017b8482850162000141565b91505092915050565b6000620001918262000198565b9050919050565b600073ffffffffffffffffffffffffffffffffffffffff82169050919050565b620001c38162000184565b8114620001cf57600080fd5b50565b614a0880620001e26000396000f3fe608060405234801561001057600080fd5b50600436106100f55760003560e01c80637960cb2611610097578063c8df91f111610066578063c8df91f1146102cf578063d482268d14610307578063da35c66414610337578063e37af12014610355576100f5565b80637960cb26146102335780638381f58a1461026357806389107dc8146102815780638da5cb5b146102b1576100f5565b80633c1960f3116100d35780633c1960f3146101825780633c7b8b9b146101b45780633fb5c1cb146101d2578063490bacc414610203576100f5565b806319bb82ab146100fa5780631dd2ab43146101185780633341b44514610148575b600080fd5b61010261038a565b60405161010f91906145a1565b60405180910390f35b610132600480360361012d9190810190613bfb565b61095e565b60405161013f91906145a1565b60405180910390f35b610162600480360361015d9190810190613a75565b611133565b6040516101799b9a999897969594939291906145bc565b60405180910390f35b61019c60048036036101979190810190613ba9565b6112f7565b6040516101ab93929190614710565b60405180910390f35b6101bc61163d565b6040516101c991906145a1565b60405180910390f35b6101ec60048036036101e79190810190613ba9565b611643565b6040516101fa929190614458565b60405180910390f35b61021d60048036036102189190810190613b16565b61165d565b60405161022a91906145a1565b60405180910390f35b61024d60048036036102489190810190613ba9565b6118e4565b60405161025a91906142d7565b60405180910390f35b61026b611920565b60405161027891906145a1565b60405180910390f35b61029b60048036036102969190810190613ba9565b611926565b6040516102a891906142d7565b60405180910390f35b6102b9611962565b6040516102c691906142d7565b60405180910390f35b6102e960048036036102e49190810190613ba9565b611988565b6040516102fe99989796959493929190614675565b60405180910390f35b610321600480360361031c9190810190613a9e565b611b20565b60405161032e91906145a1565b60405180910390f35b61033f612402565b60405161034c91906145a1565b60405180910390f35b61036f600480360361036a9190810190613ba9565b612408565b604051610381969594939291906143cd565b60405180910390f35b6000600760009054906101000a900473ffffffffffffffffffffffffffffffffffffffff1673ffffffffffffffffffffffffffffffffffffffff163373ffffffffffffffffffffffffffffffffffffffff16146103e657600080fd5b60011515600080600160025403815260200190815260200160002060070160009054906101000a900460ff16151514610454576040517f08c379a000000000000000000000000000000000000000000000000000000000815260040161044b90614581565b60405180910390fd5b6000806000600160025403815260200190815260200160002060070160006101000a81548160ff021916908315150217905550600080905060008090505b60008060016002540381526020019081526020016000206001018054905081101561094e576000806000600160025403815260200190815260200160002060010182815481106104de57fe5b9060005260206000200160009054906101000a900473ffffffffffffffffffffffffffffffffffffffff169050600061092e600080600160025403815260200190815260200160002060000160008473ffffffffffffffffffffffffffffffffffffffff1673ffffffffffffffffffffffffffffffffffffffff168152602001908152602001600020604051806101c0016040529081600082015481526020016001820160009054906101000a900473ffffffffffffffffffffffffffffffffffffffff1673ffffffffffffffffffffffffffffffffffffffff1673ffffffffffffffffffffffffffffffffffffffff1681526020016002820180548060200260200160405190810160405280929190818152602001828054801561065857602002820191906000526020600020905b8160009054906101000a900473ffffffffffffffffffffffffffffffffffffffff1673ffffffffffffffffffffffffffffffffffffffff168152602001906001019080831161060e575b50505050508152602001600382018054806020026020016040519081016040528092919081815260200182805480156106e657602002820191906000526020600020905b8160009054906101000a900473ffffffffffffffffffffffffffffffffffffffff1673ffffffffffffffffffffffffffffffffffffffff168152602001906001019080831161069c575b505050505081526020016004820180548060200260200160405190810160405280929190818152602001828054801561077457602002820191906000526020600020905b8160009054906101000a900473ffffffffffffffffffffffffffffffffffffffff1673ffffffffffffffffffffffffffffffffffffffff168152602001906001019080831161072a575b50505050508152602001600582015481526020016006820154815260200160078201548152602001600882018054600181600116156101000203166002900480601f0160208091040260200160405190810160405280929190818152602001828054600181600116156101000203166002900480156108345780601f1061080957610100808354040283529160200191610834565b820191906000526020600020905b81548152906001019060200180831161081757829003601f168201915b50505050508152602001600982018054600181600116156101000203166002900480601f0160208091040260200160405190810160405280929190818152602001828054600181600116156101000203166002900480156108d65780601f106108ab576101008083540402835291602001916108d6565b820191906000526020600020905b8154815290600101906020018083116108b957829003601f168201915b50505050508152602001600a8201548152602001600b820160009054906101000a900460ff16151515158152602001600b820160019054906101000a900460ff16151515158152602001600c82015481525050612c2b565b9050801561093f5783806001019450505b50508080600101915050610492565b50610957613127565b8091505090565b6000600860009054906101000a900473ffffffffffffffffffffffffffffffffffffffff16600960006101000a81548173ffffffffffffffffffffffffffffffffffffffff021916908373ffffffffffffffffffffffffffffffffffffffff160217905550600060025411610a08576040517f08c379a00000000000000000000000000000000000000000000000000000000081526004016109ff90614501565b60405180910390fd5b8460008060016002540381526020019081526020016000206006015411610a64576040517f08c379a0000000000000000000000000000000000000000000000000000000008152600401610a5b906144c1565b60405180910390fd5b60001515600080600160025403815260200190815260200160002060000160003373ffffffffffffffffffffffffffffffffffffffff1673ffffffffffffffffffffffffffffffffffffffff168152602001908152602001600020600b0160009054906101000a900460ff16151514610b12576040517f08c379a0000000000000000000000000000000000000000000000000000000008152600401610b09906144e1565b60405180910390fd5b6000600960009054906101000a900473ffffffffffffffffffffffffffffffffffffffff1673ffffffffffffffffffffffffffffffffffffffff1663556849ea336040518263ffffffff1660e01b8152600401610b6f91906142f2565b60206040518083038186803b158015610b8757600080fd5b505afa158015610b9b573d6000803e3d6000fd5b505050506040513d601f19601f82011682018060405250610bbf9190810190613bd2565b90507f8b399b9667b9ef90d011bfddf80958d83e33edc34a1a2c4a5da812d5e2112b243382604051610bf2929190614344565b60405180910390a1600c60000154600960009054906101000a900473ffffffffffffffffffffffffffffffffffffffff1673ffffffffffffffffffffffffffffffffffffffff1663556849ea336040518263ffffffff1660e01b8152600401610c5b91906142f2565b60206040518083038186803b158015610c7357600080fd5b505afa158015610c87573d6000803e3d6000fd5b505050506040513d601f19601f82011682018060405250610cab9190810190613bd2565b11610ceb576040517f08c379a0000000000000000000000000000000000000000000000000000000008152600401610ce290614541565b60405180910390fd5b600c60040154841115610d33576040517f08c379a0000000000000000000000000000000000000000000000000000000008152600401610d2a90614521565b60405180910390fd5b60008060016002540381526020019081526020016000206001013390806001815401808255809150509060018203906000526020600020016000909192909190916101000a81548173ffffffffffffffffffffffffffffffffffffffff021916908373ffffffffffffffffffffffffffffffffffffffff160217905550506006600081548092919060010191905055506060610dcd61372b565b604051806101c0016040528060065481526020013373ffffffffffffffffffffffffffffffffffffffff168152602001838152602001838152602001838152602001600081526020016000815260200160008152602001868152602001888152602001878152602001600115158152602001600015158152602001600160025403815250905080600080600160025403815260200190815260200160002060000160003373ffffffffffffffffffffffffffffffffffffffff1673ffffffffffffffffffffffffffffffffffffffff1681526020019081526020016000206000820151816000015560208201518160010160006101000a81548173ffffffffffffffffffffffffffffffffffffffff021916908373ffffffffffffffffffffffffffffffffffffffff1602179055506040820151816002019080519060200190610f189291906137b4565b506060820151816003019080519060200190610f359291906137b4565b506080820151816004019080519060200190610f529291906137b4565b5060a0820151816005015560c0820151816006015560e08201518160070155610100820151816008019080519060200190610f8e92919061383e565b50610120820151816009019080519060200190610fac92919061383e565b5061014082015181600a015561016082015181600b0160006101000a81548160ff02191690831515021790555061018082015181600b0160016101000a81548160ff0219169083151502179055506101a082015181600c0155905050600080600160025403815260200190815260200160002060030160008154809291906001019190505550600960009054906101000a900473ffffffffffffffffffffffffffffffffffffffff1673ffffffffffffffffffffffffffffffffffffffff166323b872dd33600760009054906101000a900473ffffffffffffffffffffffffffffffffffffffff16600c600001546040518463ffffffff1660e01b81526004016110b89392919061430d565b602060405180830381600087803b1580156110d257600080fd5b505af11580156110e6573d6000803e3d6000fd5b505050506040513d601f19601f8201168201806040525061110a9190810190613aed565b506000806001600254038152602001908152602001600020600301549350505050949350505050565b60036020528060005260406000206000915090508060000154908060010160009054906101000a900473ffffffffffffffffffffffffffffffffffffffff1690806005015490806006015490806007015490806008018054600181600116156101000203166002900480601f01602080910402602001604051908101604052809291908181526020018280546001816001161561010002031660029004801561121d5780601f106111f25761010080835404028352916020019161121d565b820191906000526020600020905b81548152906001019060200180831161120057829003601f168201915b505050505090806009018054600181600116156101000203166002900480601f0160208091040260200160405190810160405280929190818152602001828054600181600116156101000203166002900480156112bb5780601f10611290576101008083540402835291602001916112bb565b820191906000526020600020905b81548152906001019060200180831161129e57829003601f168201915b50505050509080600a01549080600b0160009054906101000a900460ff169080600b0160019054906101000a900460ff169080600c015490508b565b6000806000600254841115611341576040517f08c379a0000000000000000000000000000000000000000000000000000000008152600401611338906144a1565b60405180910390fd5b6113496138be565b60008086815260200190815260200160002060405180610160016040529081600182018054806020026020016040519081016040528092919081815260200182805480156113ec57602002820191906000526020600020905b8160009054906101000a900473ffffffffffffffffffffffffffffffffffffffff1673ffffffffffffffffffffffffffffffffffffffff16815260200190600101908083116113a2575b5050505050815260200160038201548152602001600482018054600181600116156101000203166002900480601f0160208091040260200160405190810160405280929190818152602001828054600181600116156101000203166002900480156114985780601f1061146d57610100808354040283529160200191611498565b820191906000526020600020905b81548152906001019060200180831161147b57829003601f168201915b50505050508152602001600582018054600181600116156101000203166002900480601f01602080910402602001604051908101604052809291908181526020018280546001816001161561010002031660029004801561153a5780601f1061150f5761010080835404028352916020019161153a565b820191906000526020600020905b81548152906001019060200180831161151d57829003601f168201915b50505050508152602001600682015481526020016007820160009054906101000a900460ff161515151581526020016008820154815260200160098201548152602001600a8201548152602001600b8201548152602001600d820180548060200260200160405190810160405280929190818152602001828054801561161557602002820191906000526020600020905b8160009054906101000a900473ffffffffffffffffffffffffffffffffffffffff1673ffffffffffffffffffffffffffffffffffffffff16815260200190600101908083116115cb575b505050505081525050905080602001518160c001518260a00151935093509350509193909250565b60025481565b60008082600b819055506001600a80905091509150915091565b6000600760009054906101000a900473ffffffffffffffffffffffffffffffffffffffff1673ffffffffffffffffffffffffffffffffffffffff163373ffffffffffffffffffffffffffffffffffffffff16146116b957600080fd5b600060025411156117415760008090505b60025481101561173f576001151560008083815260200190815260200160002060070160009054906101000a900460ff161515141561173257600080600083815260200190815260200160002060070160006101000a81548160ff0219169083151502179055505b80806001019150506116ca565b505b606061174b6138be565b60405180610160016040528083815260200160008152602001888152602001878152602001868152602001600115158152602001600081526020018581526020016002548152602001600c60040154815260200183815250905080600080600254815260200190815260200160002060008201518160010190805190602001906117d69291906137b4565b506020820151816003015560408201518160040190805190602001906117fd92919061383e565b50606082015181600501908051906020019061181a92919061383e565b506080820151816006015560a08201518160070160006101000a81548160ff02191690831515021790555060c0820151816008015560e0820151816009015561010082015181600a015561012082015181600b015561014082015181600d01908051906020019061188c9291906137b4565b509050507f0ebec8eaad0083414648135f63d1bda0629a930bf4321b9f920aad16a9f4be536002546040516118c191906145a1565b60405180910390a160016002540160028190555060025492505050949350505050565b600a81815481106118f157fe5b906000526020600020016000915054906101000a900473ffffffffffffffffffffffffffffffffffffffff1681565b600b5481565b6005818154811061193357fe5b906000526020600020016000915054906101000a900473ffffffffffffffffffffffffffffffffffffffff1681565b600760009054906101000a900473ffffffffffffffffffffffffffffffffffffffff1681565b6001818154811061199557fe5b90600052602060002090600e0201600091509050806003015490806004018054600181600116156101000203166002900480601f016020809104026020016040519081016040528092919081815260200182805460018160011615610100020316600290048015611a475780601f10611a1c57610100808354040283529160200191611a47565b820191906000526020600020905b815481529060010190602001808311611a2a57829003601f168201915b505050505090806005018054600181600116156101000203166002900480601f016020809104026020016040519081016040528092919081815260200182805460018160011615610100020316600290048015611ae55780601f10611aba57610100808354040283529160200191611ae5565b820191906000526020600020905b815481529060010190602001808311611ac857829003601f168201915b5050505050908060060154908060070160009054906101000a900460ff169080600801549080600901549080600a01549080600b0154905089565b6000600860009054906101000a900473ffffffffffffffffffffffffffffffffffffffff16600960006101000a81548173ffffffffffffffffffffffffffffffffffffffff021916908373ffffffffffffffffffffffffffffffffffffffff160217905550600060025411611bca576040517f08c379a0000000000000000000000000000000000000000000000000000000008152600401611bc190614501565b60405180910390fd5b8160008060016002540381526020019081526020016000206006015411611c26576040517f08c379a0000000000000000000000000000000000000000000000000000000008152600401611c1d906144c1565b60405180910390fd5b60001515600080600160025403815260200190815260200160002060000160003373ffffffffffffffffffffffffffffffffffffffff1673ffffffffffffffffffffffffffffffffffffffff168152602001908152602001600020600b0160009054906101000a900460ff16151514611cd4576040517f08c379a0000000000000000000000000000000000000000000000000000000008152600401611ccb90614481565b60405180910390fd5b600c60010154600960009054906101000a900473ffffffffffffffffffffffffffffffffffffffff1673ffffffffffffffffffffffffffffffffffffffff1663556849ea336040518263ffffffff1660e01b8152600401611d3591906142f2565b60206040518083038186803b158015611d4d57600080fd5b505afa158015611d61573d6000803e3d6000fd5b505050506040513d601f19601f82011682018060405250611d859190810190613bd2565b11611dc5576040517f08c379a0000000000000000000000000000000000000000000000000000000008152600401611dbc90614561565b60405180910390fd5b60003390506000806000600160025403815260200190815260200160002060000160008773ffffffffffffffffffffffffffffffffffffffff1673ffffffffffffffffffffffffffffffffffffffff1681526020019081526020016000209050600080600160025403815260200190815260200160002060000160008260010160009054906101000a900473ffffffffffffffffffffffffffffffffffffffff1673ffffffffffffffffffffffffffffffffffffffff1673ffffffffffffffffffffffffffffffffffffffff1681526020019081526020016000206004013390806001815401808255809150509060018203906000526020600020016000909192909190916101000a81548173ffffffffffffffffffffffffffffffffffffffff021916908373ffffffffffffffffffffffffffffffffffffffff1602179055505084156120f0576000816002019050808390806001815401808255809150509060018203906000526020600020016000909192909190916101000a81548173ffffffffffffffffffffffffffffffffffffffff021916908373ffffffffffffffffffffffffffffffffffffffff16021790555050600080600160025403815260200190815260200160002060000160008360010160009054906101000a900473ffffffffffffffffffffffffffffffffffffffff1673ffffffffffffffffffffffffffffffffffffffff1673ffffffffffffffffffffffffffffffffffffffff1681526020019081526020016000206002018390806001815401808255809150509060018203906000526020600020016000909192909190916101000a81548173ffffffffffffffffffffffffffffffffffffffff021916908373ffffffffffffffffffffffffffffffffffffffff16021790555050600080600160025403815260200190815260200160002060000160008360010160009054906101000a900473ffffffffffffffffffffffffffffffffffffffff1673ffffffffffffffffffffffffffffffffffffffff1673ffffffffffffffffffffffffffffffffffffffff1681526020019081526020016000206006016000815480929190600101919050555050612261565b600080600160025403815260200190815260200160002060000160008260010160009054906101000a900473ffffffffffffffffffffffffffffffffffffffff1673ffffffffffffffffffffffffffffffffffffffff1673ffffffffffffffffffffffffffffffffffffffff1681526020019081526020016000206003018290806001815401808255809150509060018203906000526020600020016000909192909190916101000a81548173ffffffffffffffffffffffffffffffffffffffff021916908373ffffffffffffffffffffffffffffffffffffffff16021790555050600080600160025403815260200190815260200160002060000160008260010160009054906101000a900473ffffffffffffffffffffffffffffffffffffffff1673ffffffffffffffffffffffffffffffffffffffff1673ffffffffffffffffffffffffffffffffffffffff168152602001908152602001600020600701600081548092919060010191905055505b600080600160025403815260200190815260200160002060000160008260010160009054906101000a900473ffffffffffffffffffffffffffffffffffffffff1673ffffffffffffffffffffffffffffffffffffffff1673ffffffffffffffffffffffffffffffffffffffff16815260200190815260200160002060050160008154809291906001019190505550600080600160025403815260200190815260200160002060080160008154809291906001019190505550600960009054906101000a900473ffffffffffffffffffffffffffffffffffffffff1673ffffffffffffffffffffffffffffffffffffffff166323b872dd83600760009054906101000a900473ffffffffffffffffffffffffffffffffffffffff16600c600101546040518463ffffffff1660e01b815260040161239f9392919061436d565b602060405180830381600087803b1580156123b957600080fd5b505af11580156123cd573d6000803e3d6000fd5b505050506040513d601f19601f820116820180604052506123f19190810190613aed565b508060050154925050509392505050565b60065481565b606080606080606080600254871115612456576040517f08c379a000000000000000000000000000000000000000000000000000000000815260040161244d906144a1565b60405180910390fd5b61245e61391a565b6040518060c001604052806000808b8152602001908152602001600020600301546040519080825280602002602001820160405280156124ad5781602001602082028038833980820191505090505b5081526020016000808b8152602001908152602001600020600301546040519080825280602002602001820160405280156124fc57816020015b60608152602001906001900390816124e75790505b5081526020016000808b81526020019081526020016000206003015460405190808252806020026020018201604052801561254b57816020015b60608152602001906001900390816125365790505b5081526020016000808b8152602001908152602001600020600301546040519080825280602002602001820160405280156125955781602001602082028038833980820191505090505b5081526020016000808b8152602001908152602001600020600301546040519080825280602002602001820160405280156125df5781602001602082028038833980820191505090505b5081526020016000808b8152602001908152602001600020600301546040519080825280602002602001820160405280156126295781602001602082028038833980820191505090505b50815250905060008090505b6000808a815260200190815260200160002060030154811015612be45760008060008b8152602001908152602001600020600101828154811061267457fe5b9060005260206000200160009054906101000a900473ffffffffffffffffffffffffffffffffffffffff1690506126a961372b565b6000808c815260200190815260200160002060000160008373ffffffffffffffffffffffffffffffffffffffff1673ffffffffffffffffffffffffffffffffffffffff168152602001908152602001600020604051806101c0016040529081600082015481526020016001820160009054906101000a900473ffffffffffffffffffffffffffffffffffffffff1673ffffffffffffffffffffffffffffffffffffffff1673ffffffffffffffffffffffffffffffffffffffff168152602001600282018054806020026020016040519081016040528092919081815260200182805480156127ec57602002820191906000526020600020905b8160009054906101000a900473ffffffffffffffffffffffffffffffffffffffff1673ffffffffffffffffffffffffffffffffffffffff16815260200190600101908083116127a2575b505050505081526020016003820180548060200260200160405190810160405280929190818152602001828054801561287a57602002820191906000526020600020905b8160009054906101000a900473ffffffffffffffffffffffffffffffffffffffff1673ffffffffffffffffffffffffffffffffffffffff1681526020019060010190808311612830575b505050505081526020016004820180548060200260200160405190810160405280929190818152602001828054801561290857602002820191906000526020600020905b8160009054906101000a900473ffffffffffffffffffffffffffffffffffffffff1673ffffffffffffffffffffffffffffffffffffffff16815260200190600101908083116128be575b50505050508152602001600582015481526020016006820154815260200160078201548152602001600882018054600181600116156101000203166002900480601f0160208091040260200160405190810160405280929190818152602001828054600181600116156101000203166002900480156129c85780601f1061299d576101008083540402835291602001916129c8565b820191906000526020600020905b8154815290600101906020018083116129ab57829003601f168201915b50505050508152602001600982018054600181600116156101000203166002900480601f016020809104026020016040519081016040528092919081815260200182805460018160011615610100020316600290048015612a6a5780601f10612a3f57610100808354040283529160200191612a6a565b820191906000526020600020905b815481529060010190602001808311612a4d57829003601f168201915b50505050508152602001600a8201548152602001600b820160009054906101000a900460ff16151515158152602001600b820160019054906101000a900460ff16151515158152602001600c820154815250509050806020015184600001518481518110612ad457fe5b602002602001019073ffffffffffffffffffffffffffffffffffffffff16908173ffffffffffffffffffffffffffffffffffffffff168152505080610100015184602001518481518110612b2457fe5b602002602001018190525080610100015184604001518481518110612b4557fe5b602002602001018190525080610100015184602001518481518110612b6657fe5b602002602001018190525080610140015184606001518481518110612b8757fe5b6020026020010181815250508060c0015184608001518481518110612ba857fe5b6020026020010181815250508060e001518460a001518481518110612bc957fe5b60200260200101818152505050508080600101915050612635565b50806000015181602001518260400151836060015184608001518560a001518595508494508393508292508191508090509650965096509650965096505091939550919395565b6000600860009054906101000a900473ffffffffffffffffffffffffffffffffffffffff16600960006101000a81548173ffffffffffffffffffffffffffffffffffffffff021916908373ffffffffffffffffffffffffffffffffffffffff1602179055506000600c600201548360a0015160648560c001510281612cac57fe5b0410159050600115158115151415613064578261014001516000806001600254038152602001908152602001600020600b0154111561305f577ffc5713ef03b84974927969d8f96cc72925ea17d21ce5c9f2fb87b0d9640b307b836101400151600c60000154600c6000015486610140015101604051612d2e93929190614747565b60405180910390a1600960009054906101000a900473ffffffffffffffffffffffffffffffffffffffff1673ffffffffffffffffffffffffffffffffffffffff1663a9059cbb8460200151600c60000154866101400151016040518363ffffffff1660e01b8152600401612da39291906143a4565b602060405180830381600087803b158015612dbd57600080fd5b505af1158015612dd1573d6000803e3d6000fd5b505050506040513d601f19601f82011682018060405250612df59190810190613aed565b508261014001516000806001600254038152602001908152602001600020600b01600082825403925050819055506000806001600254038152602001908152602001600020600d01836020015190806001815401808255809150509060018203906000526020600020016000909192909190916101000a81548173ffffffffffffffffffffffffffffffffffffffff021916908373ffffffffffffffffffffffffffffffffffffffff16021790555050826000806001600254038152602001908152602001600020600c016000856020015173ffffffffffffffffffffffffffffffffffffffff1673ffffffffffffffffffffffffffffffffffffffff1681526020019081526020016000206000820151816000015560208201518160010160006101000a81548173ffffffffffffffffffffffffffffffffffffffff021916908373ffffffffffffffffffffffffffffffffffffffff1602179055506040820151816002019080519060200190612f6e9291906137b4565b506060820151816003019080519060200190612f8b9291906137b4565b506080820151816004019080519060200190612fa89291906137b4565b5060a0820151816005015560c0820151816006015560e08201518160070155610100820151816008019080519060200190612fe492919061383e565b5061012082015181600901908051906020019061300292919061383e565b5061014082015181600a015561016082015181600b0160006101000a81548160ff02191690831515021790555061018082015181600b0160016101000a81548160ff0219169083151502179055506101a082015181600c01559050505b61311e565b600960009054906101000a900473ffffffffffffffffffffffffffffffffffffffff1673ffffffffffffffffffffffffffffffffffffffff1663a9059cbb8460200151600c600001546040518363ffffffff1660e01b81526004016130ca9291906143a4565b602060405180830381600087803b1580156130e457600080fd5b505af11580156130f8573d6000803e3d6000fd5b505050506040513d601f19601f8201168201806040525061311c9190810190613aed565b505b80915050919050565b600860009054906101000a900473ffffffffffffffffffffffffffffffffffffffff16600960006101000a81548173ffffffffffffffffffffffffffffffffffffffff021916908373ffffffffffffffffffffffffffffffffffffffff16021790555060008090505b600080600160025403815260200190815260200160002060010180549050811015613728576000806000600160025403815260200190815260200160002060010182815481106131dc57fe5b9060005260206000200160009054906101000a900473ffffffffffffffffffffffffffffffffffffffff16905061321161372b565b600080600160025403815260200190815260200160002060000160008373ffffffffffffffffffffffffffffffffffffffff1673ffffffffffffffffffffffffffffffffffffffff168152602001908152602001600020604051806101c0016040529081600082015481526020016001820160009054906101000a900473ffffffffffffffffffffffffffffffffffffffff1673ffffffffffffffffffffffffffffffffffffffff1673ffffffffffffffffffffffffffffffffffffffff1681526020016002820180548060200260200160405190810160405280929190818152602001828054801561335957602002820191906000526020600020905b8160009054906101000a900473ffffffffffffffffffffffffffffffffffffffff1673ffffffffffffffffffffffffffffffffffffffff168152602001906001019080831161330f575b50505050508152602001600382018054806020026020016040519081016040528092919081815260200182805480156133e757602002820191906000526020600020905b8160009054906101000a900473ffffffffffffffffffffffffffffffffffffffff1673ffffffffffffffffffffffffffffffffffffffff168152602001906001019080831161339d575b505050505081526020016004820180548060200260200160405190810160405280929190818152602001828054801561347557602002820191906000526020600020905b8160009054906101000a900473ffffffffffffffffffffffffffffffffffffffff1673ffffffffffffffffffffffffffffffffffffffff168152602001906001019080831161342b575b50505050508152602001600582015481526020016006820154815260200160078201548152602001600882018054600181600116156101000203166002900480601f0160208091040260200160405190810160405280929190818152602001828054600181600116156101000203166002900480156135355780601f1061350a57610100808354040283529160200191613535565b820191906000526020600020905b81548152906001019060200180831161351857829003601f168201915b50505050508152602001600982018054600181600116156101000203166002900480601f0160208091040260200160405190810160405280929190818152602001828054600181600116156101000203166002900480156135d75780601f106135ac576101008083540402835291602001916135d7565b820191906000526020600020905b8154815290600101906020018083116135ba57829003601f168201915b50505050508152602001600a8201548152602001600b820160009054906101000a900460ff16151515158152602001600b820160019054906101000a900460ff16151515158152602001600c82015481525050905060008090505b81608001515181101561371857600960009054906101000a900473ffffffffffffffffffffffffffffffffffffffff1673ffffffffffffffffffffffffffffffffffffffff1663a9059cbb8360800151838151811061368d57fe5b6020026020010151600c600101546040518363ffffffff1660e01b81526004016136b89291906143a4565b602060405180830381600087803b1580156136d257600080fd5b505af11580156136e6573d6000803e3d6000fd5b505050506040513d601f19601f8201168201806040525061370a9190810190613aed565b508080600101915050613632565b5050508080600101915050613190565b50565b604051806101c0016040528060008152602001600073ffffffffffffffffffffffffffffffffffffffff168152602001606081526020016060815260200160608152602001600081526020016000815260200160008152602001606081526020016060815260200160008152602001600015158152602001600015158152602001600081525090565b82805482825590600052602060002090810192821561382d579160200282015b8281111561382c5782518260006101000a81548173ffffffffffffffffffffffffffffffffffffffff021916908373ffffffffffffffffffffffffffffffffffffffff160217905550916020019190600101906137d4565b5b50905061383a9190613950565b5090565b828054600181600116156101000203166002900490600052602060002090601f016020900481019282601f1061387f57805160ff19168380011785556138ad565b828001600101855582156138ad579182015b828111156138ac578251825591602001919060010190613891565b5b5090506138ba9190613993565b5090565b604051806101600160405280606081526020016000815260200160608152602001606081526020016000815260200160001515815260200160008152602001600081526020016000815260200160008152602001606081525090565b6040518060c001604052806060815260200160608152602001606081526020016060815260200160608152602001606081525090565b61399091905b8082111561398c57600081816101000a81549073ffffffffffffffffffffffffffffffffffffffff021916905550600101613956565b5090565b90565b6139b591905b808211156139b1576000816000905550600101613999565b5090565b90565b6000813590506139c781614980565b92915050565b6000813590506139dc81614997565b92915050565b6000815190506139f181614997565b92915050565b600082601f830112613a0857600080fd5b8135613a1b613a16826147ab565b61477e565b91508082526020830160208301858383011115613a3757600080fd5b613a4283828461492d565b50505092915050565b600081359050613a5a816149ae565b92915050565b600081519050613a6f816149ae565b92915050565b600060208284031215613a8757600080fd5b6000613a95848285016139b8565b91505092915050565b600080600060608486031215613ab357600080fd5b6000613ac1868287016139b8565b9350506020613ad2868287016139cd565b9250506040613ae386828701613a4b565b9150509250925092565b600060208284031215613aff57600080fd5b6000613b0d848285016139e2565b91505092915050565b60008060008060808587031215613b2c57600080fd5b600085013567ffffffffffffffff811115613b4657600080fd5b613b52878288016139f7565b945050602085013567ffffffffffffffff811115613b6f57600080fd5b613b7b878288016139f7565b9350506040613b8c87828801613a4b565b9250506060613b9d87828801613a4b565b91505092959194509250565b600060208284031215613bbb57600080fd5b6000613bc984828501613a4b565b91505092915050565b600060208284031215613be457600080fd5b6000613bf284828501613a60565b91505092915050565b60008060008060808587031215613c1157600080fd5b6000613c1f87828801613a4b565b945050602085013567ffffffffffffffff811115613c3c57600080fd5b613c48878288016139f7565b9350506040613c5987828801613a4b565b925050606085013567ffffffffffffffff811115613c7657600080fd5b613c82878288016139f7565b91505092959194509250565b6000613c9a8383613ce1565b60208301905092915050565b6000613cb28383613e3f565b905092915050565b6000613cc683836142b9565b60208301905092915050565b613cdb816148f7565b82525050565b613cea816148af565b82525050565b613cf9816148af565b82525050565b6000613d0a82614807565b613d14818561485a565b9350613d1f836147d7565b8060005b83811015613d50578151613d378882613c8e565b9750613d4283614833565b925050600181019050613d23565b5085935050505092915050565b6000613d6882614812565b613d72818561486b565b935083602082028501613d84856147e7565b8060005b85811015613dc05784840389528151613da18582613ca6565b9450613dac83614840565b925060208a01995050600181019050613d88565b50829750879550505050505092915050565b6000613ddd8261481d565b613de7818561487c565b9350613df2836147f7565b8060005b83811015613e23578151613e0a8882613cba565b9750613e158361484d565b925050600181019050613df6565b5085935050505092915050565b613e39816148c1565b82525050565b6000613e4a82614828565b613e54818561488d565b9350613e6481856020860161493c565b613e6d8161496f565b840191505092915050565b6000613e8382614828565b613e8d818561489e565b9350613e9d81856020860161493c565b613ea68161496f565b840191505092915050565b6000613ebe60228361489e565b91507f50726f706f73616c206f776e6572732063616e6e6f74206361737420766f746560008301527f732e0000000000000000000000000000000000000000000000000000000000006020830152604082019050919050565b6000613f2460488361489e565b91507f564f54494e4720434f4e54524143543a2067657450726f706f73616c4279537460008301527f61636b2c20546865726520697320616e7920737461636b20776974682074686960208301527f73206e756d6265720000000000000000000000000000000000000000000000006040830152606082019050919050565b6000613fb0605c8361489e565b91507f4163746976652070726f706f73616c20737461636b2065787069726174696f6e60008301527f206461746520697320726561636865642c20776169742074696c6c207765207260208301527f656769737465722061206e65772070726f706f73616c20737461636b000000006040830152606082019050919050565b600061403c60288361489e565b91507f596f7520616c72656164792068617665206f6e6520726567697374657265642060008301527f70726f706f73616c0000000000000000000000000000000000000000000000006020830152604082019050919050565b60006140a2604f8361489e565b91507f546865726520617265206e6f20737461636b7320617661696c626c652c20776160008301527f69742074696c6c206d616e61676572207468726f77732061206e65772053746160208301527f636b206f662070726f706f73616c7300000000000000000000000000000000006040830152606082019050919050565b600061412e603e8361489e565b91507f596f757220726571756972656d656e74206973206f766572207468652064656660008301527f61756c74206c696d697420283130303020697320746865206c696d69742900006020830152604082019050919050565b600061419460368361489e565b91507f596f7520646f6e2774206861766520656e6f7567682065566f74696e67546f6b60008301527f656e7320746f206d616b6520612070726f706f73616c000000000000000000006020830152604082019050919050565b60006141fa60328361489e565b91507f596f7520646f6e2774206861766520656e6f7567682065566f74696e67546f6b60008301527f656e7320746f2063617374206120766f746500000000000000000000000000006020830152604082019050919050565b600061426060358361489e565b91507f5468657265206973206e6f742061637469766520737461636b20746f2072657660008301527f6965772077696e6e696e672070726f706f73616c7300000000000000000000006020830152604082019050919050565b6142c2816148ed565b82525050565b6142d1816148ed565b82525050565b60006020820190506142ec6000830184613cf0565b92915050565b60006020820190506143076000830184613cd2565b92915050565b60006060820190506143226000830186613cd2565b61432f6020830185613cf0565b61433c60408301846142c8565b949350505050565b60006040820190506143596000830185613cd2565b61436660208301846142c8565b9392505050565b60006060820190506143826000830186613cf0565b61438f6020830185613cf0565b61439c60408301846142c8565b949350505050565b60006040820190506143b96000830185613cf0565b6143c660208301846142c8565b9392505050565b600060c08201905081810360008301526143e78189613cff565b905081810360208301526143fb8188613d5d565b9050818103604083015261440f8187613d5d565b905081810360608301526144238186613dd2565b905081810360808301526144378185613dd2565b905081810360a083015261444b8184613dd2565b9050979650505050505050565b600060408201905061446d6000830185613e30565b61447a60208301846142c8565b9392505050565b6000602082019050818103600083015261449a81613eb1565b9050919050565b600060208201905081810360008301526144ba81613f17565b9050919050565b600060208201905081810360008301526144da81613fa3565b9050919050565b600060208201905081810360008301526144fa8161402f565b9050919050565b6000602082019050818103600083015261451a81614095565b9050919050565b6000602082019050818103600083015261453a81614121565b9050919050565b6000602082019050818103600083015261455a81614187565b9050919050565b6000602082019050818103600083015261457a816141ed565b9050919050565b6000602082019050818103600083015261459a81614253565b9050919050565b60006020820190506145b660008301846142c8565b92915050565b6000610160820190506145d2600083018e6142c8565b6145df602083018d613cf0565b6145ec604083018c6142c8565b6145f9606083018b6142c8565b614606608083018a6142c8565b81810360a08301526146188189613e78565b905081810360c083015261462c8188613e78565b905061463b60e08301876142c8565b614649610100830186613e30565b614657610120830185613e30565b6146656101408301846142c8565b9c9b505050505050505050505050565b60006101208201905061468b600083018c6142c8565b818103602083015261469d818b613e78565b905081810360408301526146b1818a613e78565b90506146c060608301896142c8565b6146cd6080830188613e30565b6146da60a08301876142c8565b6146e760c08301866142c8565b6146f460e08301856142c8565b6147026101008301846142c8565b9a9950505050505050505050565b600060608201905061472560008301866142c8565b61473260208301856142c8565b61473f6040830184613e30565b949350505050565b600060608201905061475c60008301866142c8565b61476960208301856142c8565b61477660408301846142c8565b949350505050565b6000604051905081810181811067ffffffffffffffff821117156147a157600080fd5b8060405250919050565b600067ffffffffffffffff8211156147c257600080fd5b601f19601f8301169050602081019050919050565b6000819050602082019050919050565b6000819050602082019050919050565b6000819050602082019050919050565b600081519050919050565b600081519050919050565b600081519050919050565b600081519050919050565b6000602082019050919050565b6000602082019050919050565b6000602082019050919050565b600082825260208201905092915050565b600082825260208201905092915050565b600082825260208201905092915050565b600082825260208201905092915050565b600082825260208201905092915050565b60006148ba826148cd565b9050919050565b60008115159050919050565b600073ffffffffffffffffffffffffffffffffffffffff82169050919050565b6000819050919050565b600061490282614909565b9050919050565b60006149148261491b565b9050919050565b6000614926826148cd565b9050919050565b82818337600083830152505050565b60005b8381101561495a57808201518184015260208101905061493f565b83811115614969576000848401525b50505050565b6000601f19601f8301169050919050565b614989816148af565b811461499457600080fd5b50565b6149a0816148c1565b81146149ab57600080fd5b50565b6149b7816148ed565b81146149c257600080fd5b5056fea365627a7a723158202c7195040cc1800d55e6f9c84cf16a5e359887837e87be8a9543458674ef1fa46c6578706572696d656e74616cf564736f6c63430005100040",
  "source": "// SPDX-License-Identifier: MIT\npragma solidity >=0.4.0 <0.7.0;\npragma experimental ABIEncoderV2;\nimport \"./eVotingToken.sol\";\n\ncontract NewVotingContract {\n    struct Voter {\n        address accountAddress;\n        bool voterRegistered;\n        uint numOfVotes;\n    }\n\n    struct Proposal {\n        uint id;\n        address proposalOwner;\n        address[] votersInFavour;\n        address[] votersInRejection;\n        address[] voters;\n        uint voteCount;\n        uint countYes;\n        uint countNo;\n        string proposalName;\n        string proposalDesc;\n        uint proposalRequirement;\n        bool proposalRegistered;\n        bool accepted;\n        uint stack;\n    }\n\n    struct ProposalStack {\n        mapping(address => Proposal) proposalsMap;\n        address[] proposals;\n        mapping(address => Voter) votersMap;\n        uint proposalCount;\n        string openDate;\n        string expirationDate;\n        uint expiration;\n        bool isActive;\n        uint voteCounter;\n        uint stackReward;\n        uint number;\n        uint winningStakeAvailable;\n        mapping(address => Proposal) winningProposalsMap;\n        address[] winningProposals;\n    }\n\n    struct Defaults {\n        uint defaultProposalStake;\n        uint defaultVoteStake;\n        uint defaultAcceptanceRate;\n        uint defaultWinningStake;\n        uint defaultRequirementLimit;\n    }\n\n    mapping(uint => ProposalStack) proposalStackMapping;\n    ProposalStack[] public proposalStackArray;\n    uint public activeStack;\n    mapping(address => Proposal) public proposals;\n    mapping (address => uint96) internal balances;\n    address[] public proposalAddress;\n    uint public proposalCount = 0;\n    address public owner;\n    address private tokenAddress;\n    eVotingToken token;\n    address[] public acceptedProposal;\n   \n    uint public number = 0;\n    \n    Defaults def;\n    event tokensDeposited (\n        address depositer,\n        uint tokenAmount\n    );        \n\n    event NewStack(uint activeStack);\n    event CheckTokenBalance(address account, uint balance);\n    event WinningStake(uint requirement, uint defaultR, uint total);\n   \n   \n    constructor(address _tokenAddress) public {\n        owner = msg.sender;\n        tokenAddress = _tokenAddress;\n        activeStack = 0;\n        number = 10;\n        def = Defaults({\n            defaultProposalStake: 1000,\n            defaultVoteStake: 500,\n            defaultAcceptanceRate: 51,\n            defaultWinningStake: 10000,\n            defaultRequirementLimit: 1000\n        });\n    }\n\n    modifier onlyOwner() {\n        require(msg.sender == owner);\n        _;\n    }\n\n    function setNumber(uint newNumber) public returns (bool, uint) {\n        number = newNumber;\n        return (true, 10);\n    }\n    // TODO: set variables values to requirementLimit, def.defaultVoteStake, defaultProposalStake while creating a new proposal stack and at winning proposals reward properly!\n    function newProposalStack(\n        string memory _openDate,\n        string memory _expirationDate,\n        uint _expiration,\n        uint _stackReward\n    ) public onlyOwner returns (uint) {\n        // Before create one ProposalStack we are closing each \"active\" stack.\n        if (activeStack > 0) {\n            for (uint i = 0; i < activeStack; i++) {\n                if (proposalStackMapping[i].isActive == true) {\n                    proposalStackMapping[i].isActive = false;\n                }\n            }\n        }\n        // Create instance of ProposalStack\n        address [] memory emptyArray;\n        ProposalStack memory ps = ProposalStack({\n            isActive: true,\n            openDate: _openDate,\n            expirationDate: _expirationDate,\n            expiration: _expiration,\n            stackReward: _stackReward,\n            voteCounter: 0,\n            proposalCount: 0,\n            winningStakeAvailable:  def.defaultRequirementLimit,\n            number: activeStack,\n            winningProposals: emptyArray,\n            proposals: emptyArray\n        });\n        \n        // Asign stack at the array\n        proposalStackMapping[activeStack] = ps;\n        emit NewStack(activeStack);\n        // Set activeStack\n       \n        activeStack = activeStack + 1;\n        return activeStack;\n    }\n\n    function getProposalsByStack (uint stackNumber) public returns(uint, uint, bool) {\n        require(stackNumber <= activeStack, 'VOTING CONTRACT: getProposalByStack, There is any stack with this number');\n        ProposalStack memory ps = proposalStackMapping[stackNumber];\n        return (ps.proposalCount, ps.voteCounter, ps.isActive);\n    }\n   \n\n    function senderHasVoted (address sender) internal view returns (bool) {\n        bool voted = false;\n        for(uint i = 0; i < proposalStackMapping[activeStack - 1].proposals.length; i++) {\n            address currentProposalAddress = proposalStackMapping[activeStack - 1].proposals[i];\n            Proposal memory currentProposal = proposalStackMapping[activeStack - 1].proposalsMap[currentProposalAddress];\n            for (uint x = 0; x < currentProposal.voters.length; x++) {\n                if (currentProposal.voters[x] == sender) {\n                    voted = true;\n                    // break voters for\n                    x = currentProposal.voters.length;\n                    //break proposals for\n                    i = proposalStackMapping[activeStack - 1].proposals.length;\n                }\n            }\n        }\n        return voted;\n    }\n\n    struct ProposalsResultObject {\n        address[] addresses;\n        string[] names;\n        string[] descriptions;\n        uint[] requirements;\n        uint[] favour;\n        uint[] against;\n    }\n\n    function getProposalListByStack (uint _stackNumber) public returns (address[] memory, string[] memory, string[] memory, uint [] memory, uint [] memory, uint [] memory) {\n        require(_stackNumber <= activeStack, 'VOTING CONTRACT: getProposalByStack, There is any stack with this number');\n\n        ProposalsResultObject memory pro = ProposalsResultObject({\n            addresses: new address[](proposalStackMapping[_stackNumber].proposalCount),\n            names: new string[](proposalStackMapping[_stackNumber].proposalCount),\n            descriptions: new string[](proposalStackMapping[_stackNumber].proposalCount),\n            requirements: new uint[](proposalStackMapping[_stackNumber].proposalCount),\n            favour: new uint[](proposalStackMapping[_stackNumber].proposalCount),\n            against: new uint[](proposalStackMapping[_stackNumber].proposalCount)\n        });\n\n       /* address[] memory proposalsResult = new address[](proposalStackMapping[_stackNumber].proposalCount);\n        string[] memory names = new string[](proposalStackMapping[_stackNumber].proposalCount);\n        string[] memory descriptions = new string[](proposalStackMapping[_stackNumber].proposalCount);\n        uint [] memory requirements = new uint[](proposalStackMapping[_stackNumber].proposalCount);\n        uint [] memory favour = new uint[](proposalStackMapping[_stackNumber].proposalCount);\n        uint [] memory against = new uint[](proposalStackMapping[_stackNumber].proposalCount);\n*/\n        for(uint i = 0; i < proposalStackMapping[_stackNumber].proposalCount; i++) {\n            address currentAddress = proposalStackMapping[_stackNumber].proposals[i];\n            Proposal memory current = proposalStackMapping[_stackNumber].proposalsMap[currentAddress];\n            pro.addresses[i] = current.proposalOwner;\n            //proposalsResult[i] = current.proposalOwner;\n            pro.names[i] = current.proposalName;\n            \n            //names[i] = current.proposalName;\n            \n            pro.descriptions[i] = current.proposalName;\n            //descriptions[i] = current.proposalDesc;\n            pro.names[i] = current.proposalName;\n            //requirements[i] = current.proposalRequirement;\n            pro.requirements[i] = current.proposalRequirement;\n\n            //favour[i] = current.countYes;\n            pro.favour[i] = current.countYes;\n\n            //against[i] = current.countNo;\n            pro.against[i] = current.countNo;\n\n        }\n        //return (proposalsResult, names, descriptions, requirements, favour, against);\n        return (pro.addresses, pro.names, pro.descriptions, pro.requirements, pro.favour, pro.against);\n\n    }\n\n    function registerProposal (\n        uint _currentDate,\n        string memory _description,\n        uint _proposalRequirement,\n        string memory _name\n    ) public returns (uint) {\n        token = eVotingToken(tokenAddress);\n        //Check if there are proposalStacks\n        require(activeStack > 0, \"There are no stacks availble, wait till manager throws a new Stack of proposals\");\n        // Check availability of current activeStack\n        require (proposalStackMapping[activeStack - 1].expiration > _currentDate, \"Active proposal stack expiration date is reached, wait till we register a new proposal stack\");\n       \n       // Check if sender has a proposal already sended to current activeStack.\n        require (proposalStackMapping[activeStack - 1].proposalsMap[msg.sender].proposalRegistered == false, \"You already have one registered proposal\");\n       \n        //Check if sender has available tokens\n        uint balance = token.balanceFor(msg.sender);\n        emit CheckTokenBalance(msg.sender, balance);\n        require (token.balanceFor(msg.sender) > def.defaultProposalStake, \"You don't have enough eVotingTokens to make a proposal\");\n       \n        //Check if msg.sender has a vote (proposalOwners can't send proposals)\n        // require(!senderHasVoted(msg.sender), \"Voters cannot send a proposal, wait till the next proposal stack\");\n       \n        // Check proposalRequirement\n        require(_proposalRequirement <=  def.defaultRequirementLimit, \"Your requirement is over the default limit (1000 is the limit)\");\n       \n        // Add sender address to  proposals\n        proposalStackMapping[activeStack - 1].proposals.push(msg.sender);\n       \n        //\n        proposalCount++;\n        // Create proposal\n        address [] memory emptyArray;\n        Proposal memory newProposal = Proposal({\n            id: proposalCount,\n            proposalName: _name,\n            proposalOwner: msg.sender,\n            proposalDesc: _description,\n            countNo: 0,\n            countYes: 0,\n            voteCount: 0,\n            votersInFavour: emptyArray,\n            votersInRejection: emptyArray,\n            voters: emptyArray,\n            proposalRequirement: _proposalRequirement,\n            proposalRegistered: true,\n            accepted: false,\n            stack: activeStack - 1\n        });\n\n        // Add proposal into proposals at stack\n        proposalStackMapping[activeStack - 1].proposalsMap[msg.sender] = newProposal;\n       \n        // Set new value of proposalCount adding 1\n        proposalStackMapping[activeStack - 1].proposalCount ++;\n       \n        // Stake token to the owner of smart contract\n        token.transferFrom(msg.sender, owner, def.defaultProposalStake);\n       \n        return proposalStackMapping[activeStack - 1].proposalCount;\n    }\n   \n    function castVote(\n        address proposalAddressToVote,\n        bool support,\n        uint _currentDate\n    ) public returns (uint) {\n        token = eVotingToken(tokenAddress);\n        //Check if there are proposalStacks\n        require(activeStack > 0, \"There are no stacks availble, wait till manager throws a new Stack of proposals\");\n        // Check availability of current activeStack\n        require (proposalStackMapping[activeStack - 1].expiration > _currentDate, \"Active proposal stack expiration date is reached, wait till we register a new proposal stack\");\n        // Check if sender has a proposal (Proposal owners canot vote).\n        require (proposalStackMapping[activeStack - 1].proposalsMap[msg.sender].proposalRegistered == false, \"Proposal owners cannot cast votes.\");\n         //Check if sender has available tokens to vote\n        require (token.balanceFor(msg.sender) > def.defaultVoteStake, \"You don't have enough eVotingTokens to cast a vote\");\n        // Check if there is a proposal for the address user selected.\n        //require(proposalStackMapping[activeStack - 1].proposalsMap[proposalAddressToVote].stack < activeStack - 1, \"There is any proposal to the address yo want to cast your vote\");\n       \n        // TODO: Check if voter has made a vote supporting this proposal. Don't know if a voter can cast multiple votes.\n        address voter = msg.sender;\n        Proposal storage proposalSelected = proposalStackMapping[activeStack - 1].proposalsMap[proposalAddressToVote];\n        proposalStackMapping[activeStack - 1].proposalsMap[proposalSelected.proposalOwner].voters.push(msg.sender);\n        if (support) {\n            address [] storage votersInFavourCopy = proposalSelected.votersInFavour;\n            votersInFavourCopy.push(voter);\n            proposalStackMapping[activeStack - 1].proposalsMap[proposalSelected.proposalOwner].votersInFavour.push(voter);\n            proposalStackMapping[activeStack - 1].proposalsMap[proposalSelected.proposalOwner].countYes++;\n        } else {\n            proposalStackMapping[activeStack - 1].proposalsMap[proposalSelected.proposalOwner].votersInRejection.push(voter);\n            proposalStackMapping[activeStack - 1].proposalsMap[proposalSelected.proposalOwner].countNo++;\n        }\n       \n        proposalStackMapping[activeStack - 1].proposalsMap[proposalSelected.proposalOwner].voteCount++;\n        proposalStackMapping[activeStack - 1].voteCounter++;\n       \n        token.transferFrom(voter, owner, def.defaultVoteStake);\n        return proposalSelected.voteCount;\n    }\n   \n    function reviewWinningProposals () onlyOwner public returns (uint){\n        // Check if activeStack is not 0\n        // require (activeStack == 0, \"There is not active stack, create one before review winning proposals\");\n        // Check if there is activeStack\n        require (proposalStackMapping[activeStack - 1].isActive == true, \"There is not active stack to review winning proposals\");\n\n        // Inactive current proposalStack\n        proposalStackMapping[activeStack - 1].isActive = false;\n        //\n        // TODO: sort winning proposals (better if they have more yesVotes).\n        uint winningCounter = 0;\n        for (uint i = 0; i < proposalStackMapping[activeStack - 1].proposals.length; i++) {\n            address currentProposalAddress = proposalStackMapping[activeStack - 1].proposals[i];\n            bool winning = reviewWinningProposal(proposalStackMapping[activeStack - 1].proposalsMap[currentProposalAddress]);\n            if (winning) {\n                winningCounter++;\n            }\n        }\n\n        returnStakeToVoters();\n       \n        return winningCounter;\n    }\n   \n    function reviewWinningProposal (Proposal memory p) internal returns (bool) {\n        token = eVotingToken(tokenAddress);\n        bool isWinning = ((p.countYes * 100) / p.voteCount ) >= def.defaultAcceptanceRate;\n        // return proposal Stake (winner or not)\n       \n        // give proposalRequirement\n        if (isWinning == true) {\n            if (proposalStackMapping[activeStack - 1].winningStakeAvailable > p.proposalRequirement) {\n                emit WinningStake(p.proposalRequirement, def.defaultProposalStake, p.proposalRequirement + def.defaultProposalStake);\n                token.transfer(p.proposalOwner, p.proposalRequirement + def.defaultProposalStake);\n                proposalStackMapping[activeStack - 1].winningStakeAvailable -= p.proposalRequirement;\n                proposalStackMapping[activeStack - 1].winningProposals.push(p.proposalOwner);\n                proposalStackMapping[activeStack - 1].winningProposalsMap[p.proposalOwner] = p;\n            }\n        } else {\n            token.transfer(p.proposalOwner, def.defaultProposalStake);\n        }\n       \n\n        return isWinning;\n    }\n   \n    function returnStakeToVoters () internal {\n        token = eVotingToken(tokenAddress);\n        for(uint i = 0; i < proposalStackMapping[activeStack - 1].proposals.length; i++) {\n            address currentProposalAddress = proposalStackMapping[activeStack - 1].proposals[i];\n            Proposal memory currentProposal = proposalStackMapping[activeStack - 1].proposalsMap[currentProposalAddress];\n            for (uint x = 0; x < currentProposal.voters.length; x++) {\n                token.transfer(currentProposal.voters[x], def.defaultVoteStake);\n            }\n        }\n    }\n   \n    function returnStakeToProposalOwners () internal {\n        token = eVotingToken(tokenAddress);\n        for(uint i = 0; i < proposalStackMapping[activeStack - 1].proposals.length; i++) {\n            address currentProposalAddress = proposalStackMapping[activeStack - 1].proposals[i];\n            Proposal memory currentProposal = proposalStackMapping[activeStack - 1].proposalsMap[currentProposalAddress];\n            token.transfer(currentProposal.proposalOwner, def.defaultProposalStake);\n        }\n    }\n} \n",
  "sourcePath": "/Users/rafaelzavala/Desktop/proyectos/Alexis/StakenetSC/votingApp/src/contracts/NewVotingContract.sol",
  "compiler": {
    "name": "solc",
    "version": "0.5.16+commit.9c3226ce.Emscripten.clang"
  },
  "schemaVersion": "3.4.3",
  "updatedAt": "2021-10-08T18:41:13.120Z",
  "networkType": "ethereum",
  "devdoc": {
    "methods": {}
  },
  "userdoc": {
    "methods": {}
  }
}