{
  "contractName": "NewVotingContract",
  "abi": [
    {
      "inputs": [
        {
          "internalType": "address",
          "name": "_tokenAddress",
          "type": "address"
        }
      ],
      "payable": false,
      "stateMutability": "nonpayable",
      "type": "constructor"
    },
    {
      "anonymous": false,
      "inputs": [
        {
          "indexed": false,
          "internalType": "address",
          "name": "account",
          "type": "address"
        },
        {
          "indexed": false,
          "internalType": "uint256",
          "name": "balance",
          "type": "uint256"
        }
      ],
      "name": "CheckTokenBalance",
      "type": "event"
    },
    {
      "anonymous": false,
      "inputs": [
        {
          "indexed": false,
          "internalType": "uint256",
          "name": "activeStack",
          "type": "uint256"
        }
      ],
      "name": "NewStack",
      "type": "event"
    },
    {
      "anonymous": false,
      "inputs": [
        {
          "indexed": false,
          "internalType": "uint256",
          "name": "requirement",
          "type": "uint256"
        },
        {
          "indexed": false,
          "internalType": "uint256",
          "name": "defaultR",
          "type": "uint256"
        },
        {
          "indexed": false,
          "internalType": "uint256",
          "name": "total",
          "type": "uint256"
        }
      ],
      "name": "WinningStake",
      "type": "event"
    },
    {
      "anonymous": false,
      "inputs": [
        {
          "indexed": false,
          "internalType": "address",
          "name": "depositer",
          "type": "address"
        },
        {
          "indexed": false,
          "internalType": "uint256",
          "name": "tokenAmount",
          "type": "uint256"
        }
      ],
      "name": "tokensDeposited",
      "type": "event"
    },
    {
      "constant": true,
      "inputs": [
        {
          "internalType": "uint256",
          "name": "",
          "type": "uint256"
        }
      ],
      "name": "acceptedProposal",
      "outputs": [
        {
          "internalType": "address",
          "name": "",
          "type": "address"
        }
      ],
      "payable": false,
      "stateMutability": "view",
      "type": "function"
    },
    {
      "constant": true,
      "inputs": [],
      "name": "activeStack",
      "outputs": [
        {
          "internalType": "uint256",
          "name": "",
          "type": "uint256"
        }
      ],
      "payable": false,
      "stateMutability": "view",
      "type": "function"
    },
    {
      "constant": true,
      "inputs": [],
      "name": "number",
      "outputs": [
        {
          "internalType": "uint256",
          "name": "",
          "type": "uint256"
        }
      ],
      "payable": false,
      "stateMutability": "view",
      "type": "function"
    },
    {
      "constant": true,
      "inputs": [],
      "name": "owner",
      "outputs": [
        {
          "internalType": "address",
          "name": "",
          "type": "address"
        }
      ],
      "payable": false,
      "stateMutability": "view",
      "type": "function"
    },
    {
      "constant": true,
      "inputs": [
        {
          "internalType": "uint256",
          "name": "",
          "type": "uint256"
        }
      ],
      "name": "proposalAddress",
      "outputs": [
        {
          "internalType": "address",
          "name": "",
          "type": "address"
        }
      ],
      "payable": false,
      "stateMutability": "view",
      "type": "function"
    },
    {
      "constant": true,
      "inputs": [],
      "name": "proposalCount",
      "outputs": [
        {
          "internalType": "uint256",
          "name": "",
          "type": "uint256"
        }
      ],
      "payable": false,
      "stateMutability": "view",
      "type": "function"
    },
    {
      "constant": true,
      "inputs": [
        {
          "internalType": "uint256",
          "name": "",
          "type": "uint256"
        }
      ],
      "name": "proposalStackArray",
      "outputs": [
        {
          "internalType": "uint256",
          "name": "proposalCount",
          "type": "uint256"
        },
        {
          "internalType": "string",
          "name": "openDate",
          "type": "string"
        },
        {
          "internalType": "string",
          "name": "expirationDate",
          "type": "string"
        },
        {
          "internalType": "uint256",
          "name": "expiration",
          "type": "uint256"
        },
        {
          "internalType": "bool",
          "name": "isActive",
          "type": "bool"
        },
        {
          "internalType": "uint256",
          "name": "voteCounter",
          "type": "uint256"
        },
        {
          "internalType": "uint256",
          "name": "stackReward",
          "type": "uint256"
        },
        {
          "internalType": "uint256",
          "name": "number",
          "type": "uint256"
        },
        {
          "internalType": "uint256",
          "name": "winningStakeAvailable",
          "type": "uint256"
        }
      ],
      "payable": false,
      "stateMutability": "view",
      "type": "function"
    },
    {
      "constant": true,
      "inputs": [
        {
          "internalType": "address",
          "name": "",
          "type": "address"
        }
      ],
      "name": "proposals",
      "outputs": [
        {
          "internalType": "uint256",
          "name": "id",
          "type": "uint256"
        },
        {
          "internalType": "address",
          "name": "proposalOwner",
          "type": "address"
        },
        {
          "internalType": "uint256",
          "name": "voteCount",
          "type": "uint256"
        },
        {
          "internalType": "uint256",
          "name": "countYes",
          "type": "uint256"
        },
        {
          "internalType": "uint256",
          "name": "countNo",
          "type": "uint256"
        },
        {
          "internalType": "string",
          "name": "proposalName",
          "type": "string"
        },
        {
          "internalType": "string",
          "name": "proposalDesc",
          "type": "string"
        },
        {
          "internalType": "uint256",
          "name": "proposalRequirement",
          "type": "uint256"
        },
        {
          "internalType": "bool",
          "name": "proposalRegistered",
          "type": "bool"
        },
        {
          "internalType": "bool",
          "name": "accepted",
          "type": "bool"
        },
        {
          "internalType": "uint256",
          "name": "stack",
          "type": "uint256"
        }
      ],
      "payable": false,
      "stateMutability": "view",
      "type": "function"
    },
    {
      "constant": false,
      "inputs": [
        {
          "internalType": "address",
          "name": "newOwner",
          "type": "address"
        }
      ],
      "name": "setOwnerDelegate",
      "outputs": [
        {
          "internalType": "bool",
          "name": "",
          "type": "bool"
        }
      ],
      "payable": false,
      "stateMutability": "nonpayable",
      "type": "function"
    },
    {
      "constant": false,
      "inputs": [
        {
          "internalType": "uint256",
          "name": "newNumber",
          "type": "uint256"
        }
      ],
      "name": "setNumber",
      "outputs": [
        {
          "internalType": "bool",
          "name": "",
          "type": "bool"
        },
        {
          "internalType": "uint256",
          "name": "",
          "type": "uint256"
        }
      ],
      "payable": false,
      "stateMutability": "nonpayable",
      "type": "function"
    },
    {
      "constant": false,
      "inputs": [
        {
          "internalType": "string",
          "name": "_openDate",
          "type": "string"
        },
        {
          "internalType": "string",
          "name": "_expirationDate",
          "type": "string"
        },
        {
          "internalType": "uint256",
          "name": "_expiration",
          "type": "uint256"
        },
        {
          "internalType": "uint256",
          "name": "_stackReward",
          "type": "uint256"
        }
      ],
      "name": "newProposalStack",
      "outputs": [
        {
          "internalType": "uint256",
          "name": "",
          "type": "uint256"
        }
      ],
      "payable": false,
      "stateMutability": "nonpayable",
      "type": "function"
    },
    {
      "constant": false,
      "inputs": [
        {
          "internalType": "uint256",
          "name": "stackNumber",
          "type": "uint256"
        }
      ],
      "name": "getProposalsByStack",
      "outputs": [
        {
          "internalType": "uint256",
          "name": "",
          "type": "uint256"
        },
        {
          "internalType": "uint256",
          "name": "",
          "type": "uint256"
        },
        {
          "internalType": "bool",
          "name": "",
          "type": "bool"
        }
      ],
      "payable": false,
      "stateMutability": "nonpayable",
      "type": "function"
    },
    {
      "constant": false,
      "inputs": [
        {
          "internalType": "uint256",
          "name": "_stackNumber",
          "type": "uint256"
        }
      ],
      "name": "getProposalListByStack",
      "outputs": [
        {
          "internalType": "address[]",
          "name": "",
          "type": "address[]"
        },
        {
          "internalType": "string[]",
          "name": "",
          "type": "string[]"
        },
        {
          "internalType": "string[]",
          "name": "",
          "type": "string[]"
        },
        {
          "internalType": "uint256[]",
          "name": "",
          "type": "uint256[]"
        },
        {
          "internalType": "uint256[]",
          "name": "",
          "type": "uint256[]"
        },
        {
          "internalType": "uint256[]",
          "name": "",
          "type": "uint256[]"
        }
      ],
      "payable": false,
      "stateMutability": "nonpayable",
      "type": "function"
    },
    {
      "constant": false,
      "inputs": [
        {
          "internalType": "uint256",
          "name": "_currentDate",
          "type": "uint256"
        },
        {
          "internalType": "string",
          "name": "_description",
          "type": "string"
        },
        {
          "internalType": "uint256",
          "name": "_proposalRequirement",
          "type": "uint256"
        },
        {
          "internalType": "string",
          "name": "_name",
          "type": "string"
        }
      ],
      "name": "registerProposal",
      "outputs": [
        {
          "internalType": "uint256",
          "name": "",
          "type": "uint256"
        }
      ],
      "payable": false,
      "stateMutability": "nonpayable",
      "type": "function"
    },
    {
      "constant": false,
      "inputs": [
        {
          "internalType": "address",
          "name": "proposalAddressToVote",
          "type": "address"
        },
        {
          "internalType": "bool",
          "name": "support",
          "type": "bool"
        },
        {
          "internalType": "uint256",
          "name": "_currentDate",
          "type": "uint256"
        }
      ],
      "name": "castVote",
      "outputs": [
        {
          "internalType": "uint256",
          "name": "",
          "type": "uint256"
        }
      ],
      "payable": false,
      "stateMutability": "nonpayable",
      "type": "function"
    },
    {
      "constant": false,
      "inputs": [],
      "name": "reviewWinningProposals",
      "outputs": [
        {
          "internalType": "uint256",
          "name": "",
          "type": "uint256"
        }
      ],
      "payable": false,
      "stateMutability": "nonpayable",
      "type": "function"
    }
  ],
  "bytecode": "0x608060405260006006556000600b553480156200001b57600080fd5b5060405162004ce638038062004ce6833981810160405262000041919081019062000158565b33600760006101000a81548173ffffffffffffffffffffffffffffffffffffffff021916908373ffffffffffffffffffffffffffffffffffffffff16021790555080600860006101000a81548173ffffffffffffffffffffffffffffffffffffffff021916908373ffffffffffffffffffffffffffffffffffffffff1602179055506000600281905550600a600b819055506040518060a001604052806103e881526020016101f481526020016033815260200161271081526020016103e8815250600c600082015181600001556020820151816001015560408201518160020155606082015181600301556080820151816004015590505050620001d2565b6000815190506200015281620001b8565b92915050565b6000602082840312156200016b57600080fd5b60006200017b8482850162000141565b91505092915050565b6000620001918262000198565b9050919050565b600073ffffffffffffffffffffffffffffffffffffffff82169050919050565b620001c38162000184565b8114620001cf57600080fd5b50565b614b0480620001e26000396000f3fe608060405234801561001057600080fd5b50600436106101005760003560e01c80638381f58a11610097578063c8df91f111610066578063c8df91f11461030a578063d482268d14610342578063da35c66414610372578063e37af1201461039057610100565b80638381f58a1461026e57806389107dc81461028c5780638da5cb5b146102bc578063ad14fde4146102da57610100565b80633c7b8b9b116100d35780633c7b8b9b146101bf5780633fb5c1cb146101dd578063490bacc41461020e5780637960cb261461023e57610100565b806319bb82ab146101055780631dd2ab43146101235780633341b445146101535780633c1960f31461018d575b600080fd5b61010d6103c5565b60405161011a919061469d565b60405180910390f35b61013d60048036036101389190810190613cdc565b610999565b60405161014a919061469d565b60405180910390f35b61016d60048036036101689190810190613b56565b61116e565b6040516101849b9a999897969594939291906146b8565b60405180910390f35b6101a760048036036101a29190810190613c8a565b611332565b6040516101b69392919061480c565b60405180910390f35b6101c7611678565b6040516101d4919061469d565b60405180910390f35b6101f760048036036101f29190810190613c8a565b61167e565b604051610205929190614554565b60405180910390f35b61022860048036036102239190810190613bf7565b611698565b604051610235919061469d565b60405180910390f35b61025860048036036102539190810190613c8a565b61191f565b60405161026591906143b8565b60405180910390f35b61027661195b565b604051610283919061469d565b60405180910390f35b6102a660048036036102a19190810190613c8a565b611961565b6040516102b391906143b8565b60405180910390f35b6102c461199d565b6040516102d191906143b8565b60405180910390f35b6102f460048036036102ef9190810190613b56565b6119c3565b6040516103019190614539565b60405180910390f35b610324600480360361031f9190810190613c8a565b611a69565b60405161033999989796959493929190614771565b60405180910390f35b61035c60048036036103579190810190613b7f565b611c01565b604051610369919061469d565b60405180910390f35b61037a6124e3565b604051610387919061469d565b60405180910390f35b6103aa60048036036103a59190810190613c8a565b6124e9565b6040516103bc969594939291906144ae565b60405180910390f35b6000600760009054906101000a900473ffffffffffffffffffffffffffffffffffffffff1673ffffffffffffffffffffffffffffffffffffffff163373ffffffffffffffffffffffffffffffffffffffff161461042157600080fd5b60011515600080600160025403815260200190815260200160002060070160009054906101000a900460ff1615151461048f576040517f08c379a00000000000000000000000000000000000000000000000000000000081526004016104869061467d565b60405180910390fd5b6000806000600160025403815260200190815260200160002060070160006101000a81548160ff021916908315150217905550600080905060008090505b6000806001600254038152602001908152602001600020600101805490508110156109895760008060006001600254038152602001908152602001600020600101828154811061051957fe5b9060005260206000200160009054906101000a900473ffffffffffffffffffffffffffffffffffffffff1690506000610969600080600160025403815260200190815260200160002060000160008473ffffffffffffffffffffffffffffffffffffffff1673ffffffffffffffffffffffffffffffffffffffff168152602001908152602001600020604051806101c0016040529081600082015481526020016001820160009054906101000a900473ffffffffffffffffffffffffffffffffffffffff1673ffffffffffffffffffffffffffffffffffffffff1673ffffffffffffffffffffffffffffffffffffffff1681526020016002820180548060200260200160405190810160405280929190818152602001828054801561069357602002820191906000526020600020905b8160009054906101000a900473ffffffffffffffffffffffffffffffffffffffff1673ffffffffffffffffffffffffffffffffffffffff1681526020019060010190808311610649575b505050505081526020016003820180548060200260200160405190810160405280929190818152602001828054801561072157602002820191906000526020600020905b8160009054906101000a900473ffffffffffffffffffffffffffffffffffffffff1673ffffffffffffffffffffffffffffffffffffffff16815260200190600101908083116106d7575b50505050508152602001600482018054806020026020016040519081016040528092919081815260200182805480156107af57602002820191906000526020600020905b8160009054906101000a900473ffffffffffffffffffffffffffffffffffffffff1673ffffffffffffffffffffffffffffffffffffffff1681526020019060010190808311610765575b50505050508152602001600582015481526020016006820154815260200160078201548152602001600882018054600181600116156101000203166002900480601f01602080910402602001604051908101604052809291908181526020018280546001816001161561010002031660029004801561086f5780601f106108445761010080835404028352916020019161086f565b820191906000526020600020905b81548152906001019060200180831161085257829003601f168201915b50505050508152602001600982018054600181600116156101000203166002900480601f0160208091040260200160405190810160405280929190818152602001828054600181600116156101000203166002900480156109115780601f106108e657610100808354040283529160200191610911565b820191906000526020600020905b8154815290600101906020018083116108f457829003601f168201915b50505050508152602001600a8201548152602001600b820160009054906101000a900460ff16151515158152602001600b820160019054906101000a900460ff16151515158152602001600c82015481525050612d0c565b9050801561097a5783806001019450505b505080806001019150506104cd565b50610992613208565b8091505090565b6000600860009054906101000a900473ffffffffffffffffffffffffffffffffffffffff16600960006101000a81548173ffffffffffffffffffffffffffffffffffffffff021916908373ffffffffffffffffffffffffffffffffffffffff160217905550600060025411610a43576040517f08c379a0000000000000000000000000000000000000000000000000000000008152600401610a3a906145fd565b60405180910390fd5b8460008060016002540381526020019081526020016000206006015411610a9f576040517f08c379a0000000000000000000000000000000000000000000000000000000008152600401610a96906145bd565b60405180910390fd5b60001515600080600160025403815260200190815260200160002060000160003373ffffffffffffffffffffffffffffffffffffffff1673ffffffffffffffffffffffffffffffffffffffff168152602001908152602001600020600b0160009054906101000a900460ff16151514610b4d576040517f08c379a0000000000000000000000000000000000000000000000000000000008152600401610b44906145dd565b60405180910390fd5b6000600960009054906101000a900473ffffffffffffffffffffffffffffffffffffffff1673ffffffffffffffffffffffffffffffffffffffff1663556849ea336040518263ffffffff1660e01b8152600401610baa91906143d3565b60206040518083038186803b158015610bc257600080fd5b505afa158015610bd6573d6000803e3d6000fd5b505050506040513d601f19601f82011682018060405250610bfa9190810190613cb3565b90507f8b399b9667b9ef90d011bfddf80958d83e33edc34a1a2c4a5da812d5e2112b243382604051610c2d929190614425565b60405180910390a1600c60000154600960009054906101000a900473ffffffffffffffffffffffffffffffffffffffff1673ffffffffffffffffffffffffffffffffffffffff1663556849ea336040518263ffffffff1660e01b8152600401610c9691906143d3565b60206040518083038186803b158015610cae57600080fd5b505afa158015610cc2573d6000803e3d6000fd5b505050506040513d601f19601f82011682018060405250610ce69190810190613cb3565b11610d26576040517f08c379a0000000000000000000000000000000000000000000000000000000008152600401610d1d9061463d565b60405180910390fd5b600c60040154841115610d6e576040517f08c379a0000000000000000000000000000000000000000000000000000000008152600401610d659061461d565b60405180910390fd5b60008060016002540381526020019081526020016000206001013390806001815401808255809150509060018203906000526020600020016000909192909190916101000a81548173ffffffffffffffffffffffffffffffffffffffff021916908373ffffffffffffffffffffffffffffffffffffffff160217905550506006600081548092919060010191905055506060610e0861380c565b604051806101c0016040528060065481526020013373ffffffffffffffffffffffffffffffffffffffff168152602001838152602001838152602001838152602001600081526020016000815260200160008152602001868152602001888152602001878152602001600115158152602001600015158152602001600160025403815250905080600080600160025403815260200190815260200160002060000160003373ffffffffffffffffffffffffffffffffffffffff1673ffffffffffffffffffffffffffffffffffffffff1681526020019081526020016000206000820151816000015560208201518160010160006101000a81548173ffffffffffffffffffffffffffffffffffffffff021916908373ffffffffffffffffffffffffffffffffffffffff1602179055506040820151816002019080519060200190610f53929190613895565b506060820151816003019080519060200190610f70929190613895565b506080820151816004019080519060200190610f8d929190613895565b5060a0820151816005015560c0820151816006015560e08201518160070155610100820151816008019080519060200190610fc992919061391f565b50610120820151816009019080519060200190610fe792919061391f565b5061014082015181600a015561016082015181600b0160006101000a81548160ff02191690831515021790555061018082015181600b0160016101000a81548160ff0219169083151502179055506101a082015181600c0155905050600080600160025403815260200190815260200160002060030160008154809291906001019190505550600960009054906101000a900473ffffffffffffffffffffffffffffffffffffffff1673ffffffffffffffffffffffffffffffffffffffff166323b872dd33600760009054906101000a900473ffffffffffffffffffffffffffffffffffffffff16600c600001546040518463ffffffff1660e01b81526004016110f3939291906143ee565b602060405180830381600087803b15801561110d57600080fd5b505af1158015611121573d6000803e3d6000fd5b505050506040513d601f19601f820116820180604052506111459190810190613bce565b506000806001600254038152602001908152602001600020600301549350505050949350505050565b60036020528060005260406000206000915090508060000154908060010160009054906101000a900473ffffffffffffffffffffffffffffffffffffffff1690806005015490806006015490806007015490806008018054600181600116156101000203166002900480601f0160208091040260200160405190810160405280929190818152602001828054600181600116156101000203166002900480156112585780601f1061122d57610100808354040283529160200191611258565b820191906000526020600020905b81548152906001019060200180831161123b57829003601f168201915b505050505090806009018054600181600116156101000203166002900480601f0160208091040260200160405190810160405280929190818152602001828054600181600116156101000203166002900480156112f65780601f106112cb576101008083540402835291602001916112f6565b820191906000526020600020905b8154815290600101906020018083116112d957829003601f168201915b50505050509080600a01549080600b0160009054906101000a900460ff169080600b0160019054906101000a900460ff169080600c015490508b565b600080600060025484111561137c576040517f08c379a00000000000000000000000000000000000000000000000000000000081526004016113739061459d565b60405180910390fd5b61138461399f565b600080868152602001908152602001600020604051806101600160405290816001820180548060200260200160405190810160405280929190818152602001828054801561142757602002820191906000526020600020905b8160009054906101000a900473ffffffffffffffffffffffffffffffffffffffff1673ffffffffffffffffffffffffffffffffffffffff16815260200190600101908083116113dd575b5050505050815260200160038201548152602001600482018054600181600116156101000203166002900480601f0160208091040260200160405190810160405280929190818152602001828054600181600116156101000203166002900480156114d35780601f106114a8576101008083540402835291602001916114d3565b820191906000526020600020905b8154815290600101906020018083116114b657829003601f168201915b50505050508152602001600582018054600181600116156101000203166002900480601f0160208091040260200160405190810160405280929190818152602001828054600181600116156101000203166002900480156115755780601f1061154a57610100808354040283529160200191611575565b820191906000526020600020905b81548152906001019060200180831161155857829003601f168201915b50505050508152602001600682015481526020016007820160009054906101000a900460ff161515151581526020016008820154815260200160098201548152602001600a8201548152602001600b8201548152602001600d820180548060200260200160405190810160405280929190818152602001828054801561165057602002820191906000526020600020905b8160009054906101000a900473ffffffffffffffffffffffffffffffffffffffff1673ffffffffffffffffffffffffffffffffffffffff1681526020019060010190808311611606575b505050505081525050905080602001518160c001518260a00151935093509350509193909250565b60025481565b60008082600b819055506001600a80905091509150915091565b6000600760009054906101000a900473ffffffffffffffffffffffffffffffffffffffff1673ffffffffffffffffffffffffffffffffffffffff163373ffffffffffffffffffffffffffffffffffffffff16146116f457600080fd5b6000600254111561177c5760008090505b60025481101561177a576001151560008083815260200190815260200160002060070160009054906101000a900460ff161515141561176d57600080600083815260200190815260200160002060070160006101000a81548160ff0219169083151502179055505b8080600101915050611705565b505b606061178661399f565b60405180610160016040528083815260200160008152602001888152602001878152602001868152602001600115158152602001600081526020018581526020016002548152602001600c6004015481526020018381525090508060008060025481526020019081526020016000206000820151816001019080519060200190611811929190613895565b5060208201518160030155604082015181600401908051906020019061183892919061391f565b50606082015181600501908051906020019061185592919061391f565b506080820151816006015560a08201518160070160006101000a81548160ff02191690831515021790555060c0820151816008015560e0820151816009015561010082015181600a015561012082015181600b015561014082015181600d0190805190602001906118c7929190613895565b509050507f0ebec8eaad0083414648135f63d1bda0629a930bf4321b9f920aad16a9f4be536002546040516118fc919061469d565b60405180910390a160016002540160028190555060025492505050949350505050565b600a818154811061192c57fe5b906000526020600020016000915054906101000a900473ffffffffffffffffffffffffffffffffffffffff1681565b600b5481565b6005818154811061196e57fe5b906000526020600020016000915054906101000a900473ffffffffffffffffffffffffffffffffffffffff1681565b600760009054906101000a900473ffffffffffffffffffffffffffffffffffffffff1681565b6000600760009054906101000a900473ffffffffffffffffffffffffffffffffffffffff1673ffffffffffffffffffffffffffffffffffffffff163373ffffffffffffffffffffffffffffffffffffffff1614611a1f57600080fd5b81600760006101000a81548173ffffffffffffffffffffffffffffffffffffffff021916908373ffffffffffffffffffffffffffffffffffffffff16021790555060019050919050565b60018181548110611a7657fe5b90600052602060002090600e0201600091509050806003015490806004018054600181600116156101000203166002900480601f016020809104026020016040519081016040528092919081815260200182805460018160011615610100020316600290048015611b285780601f10611afd57610100808354040283529160200191611b28565b820191906000526020600020905b815481529060010190602001808311611b0b57829003601f168201915b505050505090806005018054600181600116156101000203166002900480601f016020809104026020016040519081016040528092919081815260200182805460018160011615610100020316600290048015611bc65780601f10611b9b57610100808354040283529160200191611bc6565b820191906000526020600020905b815481529060010190602001808311611ba957829003601f168201915b5050505050908060060154908060070160009054906101000a900460ff169080600801549080600901549080600a01549080600b0154905089565b6000600860009054906101000a900473ffffffffffffffffffffffffffffffffffffffff16600960006101000a81548173ffffffffffffffffffffffffffffffffffffffff021916908373ffffffffffffffffffffffffffffffffffffffff160217905550600060025411611cab576040517f08c379a0000000000000000000000000000000000000000000000000000000008152600401611ca2906145fd565b60405180910390fd5b8160008060016002540381526020019081526020016000206006015411611d07576040517f08c379a0000000000000000000000000000000000000000000000000000000008152600401611cfe906145bd565b60405180910390fd5b60001515600080600160025403815260200190815260200160002060000160003373ffffffffffffffffffffffffffffffffffffffff1673ffffffffffffffffffffffffffffffffffffffff168152602001908152602001600020600b0160009054906101000a900460ff16151514611db5576040517f08c379a0000000000000000000000000000000000000000000000000000000008152600401611dac9061457d565b60405180910390fd5b600c60010154600960009054906101000a900473ffffffffffffffffffffffffffffffffffffffff1673ffffffffffffffffffffffffffffffffffffffff1663556849ea336040518263ffffffff1660e01b8152600401611e1691906143d3565b60206040518083038186803b158015611e2e57600080fd5b505afa158015611e42573d6000803e3d6000fd5b505050506040513d601f19601f82011682018060405250611e669190810190613cb3565b11611ea6576040517f08c379a0000000000000000000000000000000000000000000000000000000008152600401611e9d9061465d565b60405180910390fd5b60003390506000806000600160025403815260200190815260200160002060000160008773ffffffffffffffffffffffffffffffffffffffff1673ffffffffffffffffffffffffffffffffffffffff1681526020019081526020016000209050600080600160025403815260200190815260200160002060000160008260010160009054906101000a900473ffffffffffffffffffffffffffffffffffffffff1673ffffffffffffffffffffffffffffffffffffffff1673ffffffffffffffffffffffffffffffffffffffff1681526020019081526020016000206004013390806001815401808255809150509060018203906000526020600020016000909192909190916101000a81548173ffffffffffffffffffffffffffffffffffffffff021916908373ffffffffffffffffffffffffffffffffffffffff1602179055505084156121d1576000816002019050808390806001815401808255809150509060018203906000526020600020016000909192909190916101000a81548173ffffffffffffffffffffffffffffffffffffffff021916908373ffffffffffffffffffffffffffffffffffffffff16021790555050600080600160025403815260200190815260200160002060000160008360010160009054906101000a900473ffffffffffffffffffffffffffffffffffffffff1673ffffffffffffffffffffffffffffffffffffffff1673ffffffffffffffffffffffffffffffffffffffff1681526020019081526020016000206002018390806001815401808255809150509060018203906000526020600020016000909192909190916101000a81548173ffffffffffffffffffffffffffffffffffffffff021916908373ffffffffffffffffffffffffffffffffffffffff16021790555050600080600160025403815260200190815260200160002060000160008360010160009054906101000a900473ffffffffffffffffffffffffffffffffffffffff1673ffffffffffffffffffffffffffffffffffffffff1673ffffffffffffffffffffffffffffffffffffffff1681526020019081526020016000206006016000815480929190600101919050555050612342565b600080600160025403815260200190815260200160002060000160008260010160009054906101000a900473ffffffffffffffffffffffffffffffffffffffff1673ffffffffffffffffffffffffffffffffffffffff1673ffffffffffffffffffffffffffffffffffffffff1681526020019081526020016000206003018290806001815401808255809150509060018203906000526020600020016000909192909190916101000a81548173ffffffffffffffffffffffffffffffffffffffff021916908373ffffffffffffffffffffffffffffffffffffffff16021790555050600080600160025403815260200190815260200160002060000160008260010160009054906101000a900473ffffffffffffffffffffffffffffffffffffffff1673ffffffffffffffffffffffffffffffffffffffff1673ffffffffffffffffffffffffffffffffffffffff168152602001908152602001600020600701600081548092919060010191905055505b600080600160025403815260200190815260200160002060000160008260010160009054906101000a900473ffffffffffffffffffffffffffffffffffffffff1673ffffffffffffffffffffffffffffffffffffffff1673ffffffffffffffffffffffffffffffffffffffff16815260200190815260200160002060050160008154809291906001019190505550600080600160025403815260200190815260200160002060080160008154809291906001019190505550600960009054906101000a900473ffffffffffffffffffffffffffffffffffffffff1673ffffffffffffffffffffffffffffffffffffffff166323b872dd83600760009054906101000a900473ffffffffffffffffffffffffffffffffffffffff16600c600101546040518463ffffffff1660e01b81526004016124809392919061444e565b602060405180830381600087803b15801561249a57600080fd5b505af11580156124ae573d6000803e3d6000fd5b505050506040513d601f19601f820116820180604052506124d29190810190613bce565b508060050154925050509392505050565b60065481565b606080606080606080600254871115612537576040517f08c379a000000000000000000000000000000000000000000000000000000000815260040161252e9061459d565b60405180910390fd5b61253f6139fb565b6040518060c001604052806000808b81526020019081526020016000206003015460405190808252806020026020018201604052801561258e5781602001602082028038833980820191505090505b5081526020016000808b8152602001908152602001600020600301546040519080825280602002602001820160405280156125dd57816020015b60608152602001906001900390816125c85790505b5081526020016000808b81526020019081526020016000206003015460405190808252806020026020018201604052801561262c57816020015b60608152602001906001900390816126175790505b5081526020016000808b8152602001908152602001600020600301546040519080825280602002602001820160405280156126765781602001602082028038833980820191505090505b5081526020016000808b8152602001908152602001600020600301546040519080825280602002602001820160405280156126c05781602001602082028038833980820191505090505b5081526020016000808b81526020019081526020016000206003015460405190808252806020026020018201604052801561270a5781602001602082028038833980820191505090505b50815250905060008090505b6000808a815260200190815260200160002060030154811015612cc55760008060008b8152602001908152602001600020600101828154811061275557fe5b9060005260206000200160009054906101000a900473ffffffffffffffffffffffffffffffffffffffff16905061278a61380c565b6000808c815260200190815260200160002060000160008373ffffffffffffffffffffffffffffffffffffffff1673ffffffffffffffffffffffffffffffffffffffff168152602001908152602001600020604051806101c0016040529081600082015481526020016001820160009054906101000a900473ffffffffffffffffffffffffffffffffffffffff1673ffffffffffffffffffffffffffffffffffffffff1673ffffffffffffffffffffffffffffffffffffffff168152602001600282018054806020026020016040519081016040528092919081815260200182805480156128cd57602002820191906000526020600020905b8160009054906101000a900473ffffffffffffffffffffffffffffffffffffffff1673ffffffffffffffffffffffffffffffffffffffff1681526020019060010190808311612883575b505050505081526020016003820180548060200260200160405190810160405280929190818152602001828054801561295b57602002820191906000526020600020905b8160009054906101000a900473ffffffffffffffffffffffffffffffffffffffff1673ffffffffffffffffffffffffffffffffffffffff1681526020019060010190808311612911575b50505050508152602001600482018054806020026020016040519081016040528092919081815260200182805480156129e957602002820191906000526020600020905b8160009054906101000a900473ffffffffffffffffffffffffffffffffffffffff1673ffffffffffffffffffffffffffffffffffffffff168152602001906001019080831161299f575b50505050508152602001600582015481526020016006820154815260200160078201548152602001600882018054600181600116156101000203166002900480601f016020809104026020016040519081016040528092919081815260200182805460018160011615610100020316600290048015612aa95780601f10612a7e57610100808354040283529160200191612aa9565b820191906000526020600020905b815481529060010190602001808311612a8c57829003601f168201915b50505050508152602001600982018054600181600116156101000203166002900480601f016020809104026020016040519081016040528092919081815260200182805460018160011615610100020316600290048015612b4b5780601f10612b2057610100808354040283529160200191612b4b565b820191906000526020600020905b815481529060010190602001808311612b2e57829003601f168201915b50505050508152602001600a8201548152602001600b820160009054906101000a900460ff16151515158152602001600b820160019054906101000a900460ff16151515158152602001600c820154815250509050806020015184600001518481518110612bb557fe5b602002602001019073ffffffffffffffffffffffffffffffffffffffff16908173ffffffffffffffffffffffffffffffffffffffff168152505080610100015184602001518481518110612c0557fe5b602002602001018190525080610100015184604001518481518110612c2657fe5b602002602001018190525080610100015184602001518481518110612c4757fe5b602002602001018190525080610140015184606001518481518110612c6857fe5b6020026020010181815250508060c0015184608001518481518110612c8957fe5b6020026020010181815250508060e001518460a001518481518110612caa57fe5b60200260200101818152505050508080600101915050612716565b50806000015181602001518260400151836060015184608001518560a001518595508494508393508292508191508090509650965096509650965096505091939550919395565b6000600860009054906101000a900473ffffffffffffffffffffffffffffffffffffffff16600960006101000a81548173ffffffffffffffffffffffffffffffffffffffff021916908373ffffffffffffffffffffffffffffffffffffffff1602179055506000600c600201548360a0015160648560c001510281612d8d57fe5b0410159050600115158115151415613145578261014001516000806001600254038152602001908152602001600020600b01541115613140577ffc5713ef03b84974927969d8f96cc72925ea17d21ce5c9f2fb87b0d9640b307b836101400151600c60000154600c6000015486610140015101604051612e0f93929190614843565b60405180910390a1600960009054906101000a900473ffffffffffffffffffffffffffffffffffffffff1673ffffffffffffffffffffffffffffffffffffffff1663a9059cbb8460200151600c60000154866101400151016040518363ffffffff1660e01b8152600401612e84929190614485565b602060405180830381600087803b158015612e9e57600080fd5b505af1158015612eb2573d6000803e3d6000fd5b505050506040513d601f19601f82011682018060405250612ed69190810190613bce565b508261014001516000806001600254038152602001908152602001600020600b01600082825403925050819055506000806001600254038152602001908152602001600020600d01836020015190806001815401808255809150509060018203906000526020600020016000909192909190916101000a81548173ffffffffffffffffffffffffffffffffffffffff021916908373ffffffffffffffffffffffffffffffffffffffff16021790555050826000806001600254038152602001908152602001600020600c016000856020015173ffffffffffffffffffffffffffffffffffffffff1673ffffffffffffffffffffffffffffffffffffffff1681526020019081526020016000206000820151816000015560208201518160010160006101000a81548173ffffffffffffffffffffffffffffffffffffffff021916908373ffffffffffffffffffffffffffffffffffffffff160217905550604082015181600201908051906020019061304f929190613895565b50606082015181600301908051906020019061306c929190613895565b506080820151816004019080519060200190613089929190613895565b5060a0820151816005015560c0820151816006015560e082015181600701556101008201518160080190805190602001906130c592919061391f565b506101208201518160090190805190602001906130e392919061391f565b5061014082015181600a015561016082015181600b0160006101000a81548160ff02191690831515021790555061018082015181600b0160016101000a81548160ff0219169083151502179055506101a082015181600c01559050505b6131ff565b600960009054906101000a900473ffffffffffffffffffffffffffffffffffffffff1673ffffffffffffffffffffffffffffffffffffffff1663a9059cbb8460200151600c600001546040518363ffffffff1660e01b81526004016131ab929190614485565b602060405180830381600087803b1580156131c557600080fd5b505af11580156131d9573d6000803e3d6000fd5b505050506040513d601f19601f820116820180604052506131fd9190810190613bce565b505b80915050919050565b600860009054906101000a900473ffffffffffffffffffffffffffffffffffffffff16600960006101000a81548173ffffffffffffffffffffffffffffffffffffffff021916908373ffffffffffffffffffffffffffffffffffffffff16021790555060008090505b600080600160025403815260200190815260200160002060010180549050811015613809576000806000600160025403815260200190815260200160002060010182815481106132bd57fe5b9060005260206000200160009054906101000a900473ffffffffffffffffffffffffffffffffffffffff1690506132f261380c565b600080600160025403815260200190815260200160002060000160008373ffffffffffffffffffffffffffffffffffffffff1673ffffffffffffffffffffffffffffffffffffffff168152602001908152602001600020604051806101c0016040529081600082015481526020016001820160009054906101000a900473ffffffffffffffffffffffffffffffffffffffff1673ffffffffffffffffffffffffffffffffffffffff1673ffffffffffffffffffffffffffffffffffffffff1681526020016002820180548060200260200160405190810160405280929190818152602001828054801561343a57602002820191906000526020600020905b8160009054906101000a900473ffffffffffffffffffffffffffffffffffffffff1673ffffffffffffffffffffffffffffffffffffffff16815260200190600101908083116133f0575b50505050508152602001600382018054806020026020016040519081016040528092919081815260200182805480156134c857602002820191906000526020600020905b8160009054906101000a900473ffffffffffffffffffffffffffffffffffffffff1673ffffffffffffffffffffffffffffffffffffffff168152602001906001019080831161347e575b505050505081526020016004820180548060200260200160405190810160405280929190818152602001828054801561355657602002820191906000526020600020905b8160009054906101000a900473ffffffffffffffffffffffffffffffffffffffff1673ffffffffffffffffffffffffffffffffffffffff168152602001906001019080831161350c575b50505050508152602001600582015481526020016006820154815260200160078201548152602001600882018054600181600116156101000203166002900480601f0160208091040260200160405190810160405280929190818152602001828054600181600116156101000203166002900480156136165780601f106135eb57610100808354040283529160200191613616565b820191906000526020600020905b8154815290600101906020018083116135f957829003601f168201915b50505050508152602001600982018054600181600116156101000203166002900480601f0160208091040260200160405190810160405280929190818152602001828054600181600116156101000203166002900480156136b85780601f1061368d576101008083540402835291602001916136b8565b820191906000526020600020905b81548152906001019060200180831161369b57829003601f168201915b50505050508152602001600a8201548152602001600b820160009054906101000a900460ff16151515158152602001600b820160019054906101000a900460ff16151515158152602001600c82015481525050905060008090505b8160800151518110156137f957600960009054906101000a900473ffffffffffffffffffffffffffffffffffffffff1673ffffffffffffffffffffffffffffffffffffffff1663a9059cbb8360800151838151811061376e57fe5b6020026020010151600c600101546040518363ffffffff1660e01b8152600401613799929190614485565b602060405180830381600087803b1580156137b357600080fd5b505af11580156137c7573d6000803e3d6000fd5b505050506040513d601f19601f820116820180604052506137eb9190810190613bce565b508080600101915050613713565b5050508080600101915050613271565b50565b604051806101c0016040528060008152602001600073ffffffffffffffffffffffffffffffffffffffff168152602001606081526020016060815260200160608152602001600081526020016000815260200160008152602001606081526020016060815260200160008152602001600015158152602001600015158152602001600081525090565b82805482825590600052602060002090810192821561390e579160200282015b8281111561390d5782518260006101000a81548173ffffffffffffffffffffffffffffffffffffffff021916908373ffffffffffffffffffffffffffffffffffffffff160217905550916020019190600101906138b5565b5b50905061391b9190613a31565b5090565b828054600181600116156101000203166002900490600052602060002090601f016020900481019282601f1061396057805160ff191683800117855561398e565b8280016001018555821561398e579182015b8281111561398d578251825591602001919060010190613972565b5b50905061399b9190613a74565b5090565b604051806101600160405280606081526020016000815260200160608152602001606081526020016000815260200160001515815260200160008152602001600081526020016000815260200160008152602001606081525090565b6040518060c001604052806060815260200160608152602001606081526020016060815260200160608152602001606081525090565b613a7191905b80821115613a6d57600081816101000a81549073ffffffffffffffffffffffffffffffffffffffff021916905550600101613a37565b5090565b90565b613a9691905b80821115613a92576000816000905550600101613a7a565b5090565b90565b600081359050613aa881614a7c565b92915050565b600081359050613abd81614a93565b92915050565b600081519050613ad281614a93565b92915050565b600082601f830112613ae957600080fd5b8135613afc613af7826148a7565b61487a565b91508082526020830160208301858383011115613b1857600080fd5b613b23838284614a29565b50505092915050565b600081359050613b3b81614aaa565b92915050565b600081519050613b5081614aaa565b92915050565b600060208284031215613b6857600080fd5b6000613b7684828501613a99565b91505092915050565b600080600060608486031215613b9457600080fd5b6000613ba286828701613a99565b9350506020613bb386828701613aae565b9250506040613bc486828701613b2c565b9150509250925092565b600060208284031215613be057600080fd5b6000613bee84828501613ac3565b91505092915050565b60008060008060808587031215613c0d57600080fd5b600085013567ffffffffffffffff811115613c2757600080fd5b613c3387828801613ad8565b945050602085013567ffffffffffffffff811115613c5057600080fd5b613c5c87828801613ad8565b9350506040613c6d87828801613b2c565b9250506060613c7e87828801613b2c565b91505092959194509250565b600060208284031215613c9c57600080fd5b6000613caa84828501613b2c565b91505092915050565b600060208284031215613cc557600080fd5b6000613cd384828501613b41565b91505092915050565b60008060008060808587031215613cf257600080fd5b6000613d0087828801613b2c565b945050602085013567ffffffffffffffff811115613d1d57600080fd5b613d2987828801613ad8565b9350506040613d3a87828801613b2c565b925050606085013567ffffffffffffffff811115613d5757600080fd5b613d6387828801613ad8565b91505092959194509250565b6000613d7b8383613dc2565b60208301905092915050565b6000613d938383613f20565b905092915050565b6000613da7838361439a565b60208301905092915050565b613dbc816149f3565b82525050565b613dcb816149ab565b82525050565b613dda816149ab565b82525050565b6000613deb82614903565b613df58185614956565b9350613e00836148d3565b8060005b83811015613e31578151613e188882613d6f565b9750613e238361492f565b925050600181019050613e04565b5085935050505092915050565b6000613e498261490e565b613e538185614967565b935083602082028501613e65856148e3565b8060005b85811015613ea15784840389528151613e828582613d87565b9450613e8d8361493c565b925060208a01995050600181019050613e69565b50829750879550505050505092915050565b6000613ebe82614919565b613ec88185614978565b9350613ed3836148f3565b8060005b83811015613f04578151613eeb8882613d9b565b9750613ef683614949565b925050600181019050613ed7565b5085935050505092915050565b613f1a816149bd565b82525050565b6000613f2b82614924565b613f358185614989565b9350613f45818560208601614a38565b613f4e81614a6b565b840191505092915050565b6000613f6482614924565b613f6e818561499a565b9350613f7e818560208601614a38565b613f8781614a6b565b840191505092915050565b6000613f9f60228361499a565b91507f50726f706f73616c206f776e6572732063616e6e6f74206361737420766f746560008301527f732e0000000000000000000000000000000000000000000000000000000000006020830152604082019050919050565b600061400560488361499a565b91507f564f54494e4720434f4e54524143543a2067657450726f706f73616c4279537460008301527f61636b2c20546865726520697320616e7920737461636b20776974682074686960208301527f73206e756d6265720000000000000000000000000000000000000000000000006040830152606082019050919050565b6000614091605c8361499a565b91507f4163746976652070726f706f73616c20737461636b2065787069726174696f6e60008301527f206461746520697320726561636865642c20776169742074696c6c207765207260208301527f656769737465722061206e65772070726f706f73616c20737461636b000000006040830152606082019050919050565b600061411d60288361499a565b91507f596f7520616c72656164792068617665206f6e6520726567697374657265642060008301527f70726f706f73616c0000000000000000000000000000000000000000000000006020830152604082019050919050565b6000614183604f8361499a565b91507f546865726520617265206e6f20737461636b7320617661696c626c652c20776160008301527f69742074696c6c206d616e61676572207468726f77732061206e65772053746160208301527f636b206f662070726f706f73616c7300000000000000000000000000000000006040830152606082019050919050565b600061420f603e8361499a565b91507f596f757220726571756972656d656e74206973206f766572207468652064656660008301527f61756c74206c696d697420283130303020697320746865206c696d69742900006020830152604082019050919050565b600061427560368361499a565b91507f596f7520646f6e2774206861766520656e6f7567682065566f74696e67546f6b60008301527f656e7320746f206d616b6520612070726f706f73616c000000000000000000006020830152604082019050919050565b60006142db60328361499a565b91507f596f7520646f6e2774206861766520656e6f7567682065566f74696e67546f6b60008301527f656e7320746f2063617374206120766f746500000000000000000000000000006020830152604082019050919050565b600061434160358361499a565b91507f5468657265206973206e6f742061637469766520737461636b20746f2072657660008301527f6965772077696e6e696e672070726f706f73616c7300000000000000000000006020830152604082019050919050565b6143a3816149e9565b82525050565b6143b2816149e9565b82525050565b60006020820190506143cd6000830184613dd1565b92915050565b60006020820190506143e86000830184613db3565b92915050565b60006060820190506144036000830186613db3565b6144106020830185613dd1565b61441d60408301846143a9565b949350505050565b600060408201905061443a6000830185613db3565b61444760208301846143a9565b9392505050565b60006060820190506144636000830186613dd1565b6144706020830185613dd1565b61447d60408301846143a9565b949350505050565b600060408201905061449a6000830185613dd1565b6144a760208301846143a9565b9392505050565b600060c08201905081810360008301526144c88189613de0565b905081810360208301526144dc8188613e3e565b905081810360408301526144f08187613e3e565b905081810360608301526145048186613eb3565b905081810360808301526145188185613eb3565b905081810360a083015261452c8184613eb3565b9050979650505050505050565b600060208201905061454e6000830184613f11565b92915050565b60006040820190506145696000830185613f11565b61457660208301846143a9565b9392505050565b6000602082019050818103600083015261459681613f92565b9050919050565b600060208201905081810360008301526145b681613ff8565b9050919050565b600060208201905081810360008301526145d681614084565b9050919050565b600060208201905081810360008301526145f681614110565b9050919050565b6000602082019050818103600083015261461681614176565b9050919050565b6000602082019050818103600083015261463681614202565b9050919050565b6000602082019050818103600083015261465681614268565b9050919050565b60006020820190508181036000830152614676816142ce565b9050919050565b6000602082019050818103600083015261469681614334565b9050919050565b60006020820190506146b260008301846143a9565b92915050565b6000610160820190506146ce600083018e6143a9565b6146db602083018d613dd1565b6146e8604083018c6143a9565b6146f5606083018b6143a9565b614702608083018a6143a9565b81810360a08301526147148189613f59565b905081810360c08301526147288188613f59565b905061473760e08301876143a9565b614745610100830186613f11565b614753610120830185613f11565b6147616101408301846143a9565b9c9b505050505050505050505050565b600061012082019050614787600083018c6143a9565b8181036020830152614799818b613f59565b905081810360408301526147ad818a613f59565b90506147bc60608301896143a9565b6147c96080830188613f11565b6147d660a08301876143a9565b6147e360c08301866143a9565b6147f060e08301856143a9565b6147fe6101008301846143a9565b9a9950505050505050505050565b600060608201905061482160008301866143a9565b61482e60208301856143a9565b61483b6040830184613f11565b949350505050565b600060608201905061485860008301866143a9565b61486560208301856143a9565b61487260408301846143a9565b949350505050565b6000604051905081810181811067ffffffffffffffff8211171561489d57600080fd5b8060405250919050565b600067ffffffffffffffff8211156148be57600080fd5b601f19601f8301169050602081019050919050565b6000819050602082019050919050565b6000819050602082019050919050565b6000819050602082019050919050565b600081519050919050565b600081519050919050565b600081519050919050565b600081519050919050565b6000602082019050919050565b6000602082019050919050565b6000602082019050919050565b600082825260208201905092915050565b600082825260208201905092915050565b600082825260208201905092915050565b600082825260208201905092915050565b600082825260208201905092915050565b60006149b6826149c9565b9050919050565b60008115159050919050565b600073ffffffffffffffffffffffffffffffffffffffff82169050919050565b6000819050919050565b60006149fe82614a05565b9050919050565b6000614a1082614a17565b9050919050565b6000614a22826149c9565b9050919050565b82818337600083830152505050565b60005b83811015614a56578082015181840152602081019050614a3b565b83811115614a65576000848401525b50505050565b6000601f19601f8301169050919050565b614a85816149ab565b8114614a9057600080fd5b50565b614a9c816149bd565b8114614aa757600080fd5b50565b614ab3816149e9565b8114614abe57600080fd5b5056fea365627a7a723158205e83cbb9e8e2932cc07f2478ca17549b7253e7e662a8fe54ec3a987fd125d4096c6578706572696d656e74616cf564736f6c63430005100040",
  "source": "// SPDX-License-Identifier: MIT\npragma solidity >=0.4.0 <0.7.0;\npragma experimental ABIEncoderV2;\nimport \"./eVotingToken.sol\";\n\ncontract NewVotingContract {\n    struct Voter {\n        address accountAddress;\n        bool voterRegistered;\n        uint numOfVotes;\n    }\n\n    struct Proposal {\n        uint id;\n        address proposalOwner;\n        address[] votersInFavour;\n        address[] votersInRejection;\n        address[] voters;\n        uint voteCount;\n        uint countYes;\n        uint countNo;\n        string proposalName;\n        string proposalDesc;\n        uint proposalRequirement;\n        bool proposalRegistered;\n        bool accepted;\n        uint stack;\n    }\n\n    struct ProposalStack {\n        mapping(address => Proposal) proposalsMap;\n        address[] proposals;\n        mapping(address => Voter) votersMap;\n        uint proposalCount;\n        string openDate;\n        string expirationDate;\n        uint expiration;\n        bool isActive;\n        uint voteCounter;\n        uint stackReward;\n        uint number;\n        uint winningStakeAvailable;\n        mapping(address => Proposal) winningProposalsMap;\n        address[] winningProposals;\n    }\n\n    struct Defaults {\n        uint defaultProposalStake;\n        uint defaultVoteStake;\n        uint defaultAcceptanceRate;\n        uint defaultWinningStake;\n        uint defaultRequirementLimit;\n    }\n\n    mapping(uint => ProposalStack) proposalStackMapping;\n    ProposalStack[] public proposalStackArray;\n    uint public activeStack;\n    mapping(address => Proposal) public proposals;\n    mapping (address => uint96) internal balances;\n    address[] public proposalAddress;\n    uint public proposalCount = 0;\n    address public owner;\n    address private tokenAddress;\n    eVotingToken token;\n    address[] public acceptedProposal;\n   \n    uint public number = 0;\n    \n    Defaults def;\n    event tokensDeposited (\n        address depositer,\n        uint tokenAmount\n    );        \n\n    event NewStack(uint activeStack);\n    event CheckTokenBalance(address account, uint balance);\n    event WinningStake(uint requirement, uint defaultR, uint total);\n   \n   \n    constructor(address _tokenAddress) public {\n        owner = msg.sender;\n        tokenAddress = _tokenAddress;\n        activeStack = 0;\n        number = 10;\n        def = Defaults({\n            defaultProposalStake: 1000,\n            defaultVoteStake: 500,\n            defaultAcceptanceRate: 51,\n            defaultWinningStake: 10000,\n            defaultRequirementLimit: 1000\n        });\n    }\n\n    modifier onlyOwner() {\n        require(msg.sender == owner);\n        _;\n    }\n\n    function setOwnerDelegate(address newOwner) public onlyOwner returns(bool) {\n        owner = newOwner;\n        return true;\n    }\n\n    function setNumber(uint newNumber) public returns (bool, uint) {\n        number = newNumber;\n        return (true, 10);\n    }\n    // TODO: set variables values to requirementLimit, def.defaultVoteStake, defaultProposalStake while creating a new proposal stack and at winning proposals reward properly!\n    function newProposalStack(\n        string memory _openDate,\n        string memory _expirationDate,\n        uint _expiration,\n        uint _stackReward\n    ) public onlyOwner returns (uint) {\n        // Before create one ProposalStack we are closing each \"active\" stack.\n        if (activeStack > 0) {\n            for (uint i = 0; i < activeStack; i++) {\n                if (proposalStackMapping[i].isActive == true) {\n                    proposalStackMapping[i].isActive = false;\n                }\n            }\n        }\n        // Create instance of ProposalStack\n        address [] memory emptyArray;\n        ProposalStack memory ps = ProposalStack({\n            isActive: true,\n            openDate: _openDate,\n            expirationDate: _expirationDate,\n            expiration: _expiration,\n            stackReward: _stackReward,\n            voteCounter: 0,\n            proposalCount: 0,\n            winningStakeAvailable:  def.defaultRequirementLimit,\n            number: activeStack,\n            winningProposals: emptyArray,\n            proposals: emptyArray\n        });\n        \n        // Asign stack at the array\n        proposalStackMapping[activeStack] = ps;\n        emit NewStack(activeStack);\n        // Set activeStack\n       \n        activeStack = activeStack + 1;\n        return activeStack;\n    }\n\n    function getProposalsByStack (uint stackNumber) public returns(uint, uint, bool) {\n        require(stackNumber <= activeStack, 'VOTING CONTRACT: getProposalByStack, There is any stack with this number');\n        ProposalStack memory ps = proposalStackMapping[stackNumber];\n        return (ps.proposalCount, ps.voteCounter, ps.isActive);\n    }\n   \n\n    function senderHasVoted (address sender) internal view returns (bool) {\n        bool voted = false;\n        for(uint i = 0; i < proposalStackMapping[activeStack - 1].proposals.length; i++) {\n            address currentProposalAddress = proposalStackMapping[activeStack - 1].proposals[i];\n            Proposal memory currentProposal = proposalStackMapping[activeStack - 1].proposalsMap[currentProposalAddress];\n            for (uint x = 0; x < currentProposal.voters.length; x++) {\n                if (currentProposal.voters[x] == sender) {\n                    voted = true;\n                    // break voters for\n                    x = currentProposal.voters.length;\n                    //break proposals for\n                    i = proposalStackMapping[activeStack - 1].proposals.length;\n                }\n            }\n        }\n        return voted;\n    }\n\n    struct ProposalsResultObject {\n        address[] addresses;\n        string[] names;\n        string[] descriptions;\n        uint[] requirements;\n        uint[] favour;\n        uint[] against;\n    }\n\n    function getProposalListByStack (uint _stackNumber) public returns (address[] memory, string[] memory, string[] memory, uint [] memory, uint [] memory, uint [] memory) {\n        require(_stackNumber <= activeStack, 'VOTING CONTRACT: getProposalByStack, There is any stack with this number');\n\n        ProposalsResultObject memory pro = ProposalsResultObject({\n            addresses: new address[](proposalStackMapping[_stackNumber].proposalCount),\n            names: new string[](proposalStackMapping[_stackNumber].proposalCount),\n            descriptions: new string[](proposalStackMapping[_stackNumber].proposalCount),\n            requirements: new uint[](proposalStackMapping[_stackNumber].proposalCount),\n            favour: new uint[](proposalStackMapping[_stackNumber].proposalCount),\n            against: new uint[](proposalStackMapping[_stackNumber].proposalCount)\n        });\n\n       /* address[] memory proposalsResult = new address[](proposalStackMapping[_stackNumber].proposalCount);\n        string[] memory names = new string[](proposalStackMapping[_stackNumber].proposalCount);\n        string[] memory descriptions = new string[](proposalStackMapping[_stackNumber].proposalCount);\n        uint [] memory requirements = new uint[](proposalStackMapping[_stackNumber].proposalCount);\n        uint [] memory favour = new uint[](proposalStackMapping[_stackNumber].proposalCount);\n        uint [] memory against = new uint[](proposalStackMapping[_stackNumber].proposalCount);\n*/\n        for(uint i = 0; i < proposalStackMapping[_stackNumber].proposalCount; i++) {\n            address currentAddress = proposalStackMapping[_stackNumber].proposals[i];\n            Proposal memory current = proposalStackMapping[_stackNumber].proposalsMap[currentAddress];\n            pro.addresses[i] = current.proposalOwner;\n            //proposalsResult[i] = current.proposalOwner;\n            pro.names[i] = current.proposalName;\n            \n            //names[i] = current.proposalName;\n            \n            pro.descriptions[i] = current.proposalName;\n            //descriptions[i] = current.proposalDesc;\n            pro.names[i] = current.proposalName;\n            //requirements[i] = current.proposalRequirement;\n            pro.requirements[i] = current.proposalRequirement;\n\n            //favour[i] = current.countYes;\n            pro.favour[i] = current.countYes;\n\n            //against[i] = current.countNo;\n            pro.against[i] = current.countNo;\n\n        }\n        //return (proposalsResult, names, descriptions, requirements, favour, against);\n        return (pro.addresses, pro.names, pro.descriptions, pro.requirements, pro.favour, pro.against);\n\n    }\n\n    function registerProposal (\n        uint _currentDate,\n        string memory _description,\n        uint _proposalRequirement,\n        string memory _name\n    ) public returns (uint) {\n        token = eVotingToken(tokenAddress);\n        //Check if there are proposalStacks\n        require(activeStack > 0, \"There are no stacks availble, wait till manager throws a new Stack of proposals\");\n        // Check availability of current activeStack\n        require (proposalStackMapping[activeStack - 1].expiration > _currentDate, \"Active proposal stack expiration date is reached, wait till we register a new proposal stack\");\n       \n       // Check if sender has a proposal already sended to current activeStack.\n        require (proposalStackMapping[activeStack - 1].proposalsMap[msg.sender].proposalRegistered == false, \"You already have one registered proposal\");\n       \n        //Check if sender has available tokens\n        uint balance = token.balanceFor(msg.sender);\n        emit CheckTokenBalance(msg.sender, balance);\n        require (token.balanceFor(msg.sender) > def.defaultProposalStake, \"You don't have enough eVotingTokens to make a proposal\");\n       \n        //Check if msg.sender has a vote (proposalOwners can't send proposals)\n        // require(!senderHasVoted(msg.sender), \"Voters cannot send a proposal, wait till the next proposal stack\");\n       \n        // Check proposalRequirement\n        require(_proposalRequirement <=  def.defaultRequirementLimit, \"Your requirement is over the default limit (1000 is the limit)\");\n       \n        // Add sender address to  proposals\n        proposalStackMapping[activeStack - 1].proposals.push(msg.sender);\n       \n        //\n        proposalCount++;\n        // Create proposal\n        address [] memory emptyArray;\n        Proposal memory newProposal = Proposal({\n            id: proposalCount,\n            proposalName: _name,\n            proposalOwner: msg.sender,\n            proposalDesc: _description,\n            countNo: 0,\n            countYes: 0,\n            voteCount: 0,\n            votersInFavour: emptyArray,\n            votersInRejection: emptyArray,\n            voters: emptyArray,\n            proposalRequirement: _proposalRequirement,\n            proposalRegistered: true,\n            accepted: false,\n            stack: activeStack - 1\n        });\n\n        // Add proposal into proposals at stack\n        proposalStackMapping[activeStack - 1].proposalsMap[msg.sender] = newProposal;\n       \n        // Set new value of proposalCount adding 1\n        proposalStackMapping[activeStack - 1].proposalCount ++;\n       \n        // Stake token to the owner of smart contract\n        token.transferFrom(msg.sender, owner, def.defaultProposalStake);\n       \n        return proposalStackMapping[activeStack - 1].proposalCount;\n    }\n   \n    function castVote(\n        address proposalAddressToVote,\n        bool support,\n        uint _currentDate\n    ) public returns (uint) {\n        token = eVotingToken(tokenAddress);\n        //Check if there are proposalStacks\n        require(activeStack > 0, \"There are no stacks availble, wait till manager throws a new Stack of proposals\");\n        // Check availability of current activeStack\n        require (proposalStackMapping[activeStack - 1].expiration > _currentDate, \"Active proposal stack expiration date is reached, wait till we register a new proposal stack\");\n        // Check if sender has a proposal (Proposal owners canot vote).\n        require (proposalStackMapping[activeStack - 1].proposalsMap[msg.sender].proposalRegistered == false, \"Proposal owners cannot cast votes.\");\n         //Check if sender has available tokens to vote\n        require (token.balanceFor(msg.sender) > def.defaultVoteStake, \"You don't have enough eVotingTokens to cast a vote\");\n        // Check if there is a proposal for the address user selected.\n        //require(proposalStackMapping[activeStack - 1].proposalsMap[proposalAddressToVote].stack < activeStack - 1, \"There is any proposal to the address yo want to cast your vote\");\n       \n        // TODO: Check if voter has made a vote supporting this proposal. Don't know if a voter can cast multiple votes.\n        address voter = msg.sender;\n        Proposal storage proposalSelected = proposalStackMapping[activeStack - 1].proposalsMap[proposalAddressToVote];\n        proposalStackMapping[activeStack - 1].proposalsMap[proposalSelected.proposalOwner].voters.push(msg.sender);\n        if (support) {\n            address [] storage votersInFavourCopy = proposalSelected.votersInFavour;\n            votersInFavourCopy.push(voter);\n            proposalStackMapping[activeStack - 1].proposalsMap[proposalSelected.proposalOwner].votersInFavour.push(voter);\n            proposalStackMapping[activeStack - 1].proposalsMap[proposalSelected.proposalOwner].countYes++;\n        } else {\n            proposalStackMapping[activeStack - 1].proposalsMap[proposalSelected.proposalOwner].votersInRejection.push(voter);\n            proposalStackMapping[activeStack - 1].proposalsMap[proposalSelected.proposalOwner].countNo++;\n        }\n       \n        proposalStackMapping[activeStack - 1].proposalsMap[proposalSelected.proposalOwner].voteCount++;\n        proposalStackMapping[activeStack - 1].voteCounter++;\n       \n        token.transferFrom(voter, owner, def.defaultVoteStake);\n        return proposalSelected.voteCount;\n    }\n   \n    function reviewWinningProposals () onlyOwner public returns (uint){\n        // Check if activeStack is not 0\n        // require (activeStack == 0, \"There is not active stack, create one before review winning proposals\");\n        // Check if there is activeStack\n        require (proposalStackMapping[activeStack - 1].isActive == true, \"There is not active stack to review winning proposals\");\n\n        // Inactive current proposalStack\n        proposalStackMapping[activeStack - 1].isActive = false;\n        //\n        // TODO: sort winning proposals (better if they have more yesVotes).\n        uint winningCounter = 0;\n        for (uint i = 0; i < proposalStackMapping[activeStack - 1].proposals.length; i++) {\n            address currentProposalAddress = proposalStackMapping[activeStack - 1].proposals[i];\n            bool winning = reviewWinningProposal(proposalStackMapping[activeStack - 1].proposalsMap[currentProposalAddress]);\n            if (winning) {\n                winningCounter++;\n            }\n        }\n\n        returnStakeToVoters();\n       \n        return winningCounter;\n    }\n   \n    function reviewWinningProposal (Proposal memory p) internal returns (bool) {\n        token = eVotingToken(tokenAddress);\n        bool isWinning = ((p.countYes * 100) / p.voteCount ) >= def.defaultAcceptanceRate;\n        // return proposal Stake (winner or not)\n       \n        // give proposalRequirement\n        if (isWinning == true) {\n            if (proposalStackMapping[activeStack - 1].winningStakeAvailable > p.proposalRequirement) {\n                emit WinningStake(p.proposalRequirement, def.defaultProposalStake, p.proposalRequirement + def.defaultProposalStake);\n                token.transfer(p.proposalOwner, p.proposalRequirement + def.defaultProposalStake);\n                proposalStackMapping[activeStack - 1].winningStakeAvailable -= p.proposalRequirement;\n                proposalStackMapping[activeStack - 1].winningProposals.push(p.proposalOwner);\n                proposalStackMapping[activeStack - 1].winningProposalsMap[p.proposalOwner] = p;\n            }\n        } else {\n            token.transfer(p.proposalOwner, def.defaultProposalStake);\n        }\n       \n\n        return isWinning;\n    }\n   \n    function returnStakeToVoters () internal {\n        token = eVotingToken(tokenAddress);\n        for(uint i = 0; i < proposalStackMapping[activeStack - 1].proposals.length; i++) {\n            address currentProposalAddress = proposalStackMapping[activeStack - 1].proposals[i];\n            Proposal memory currentProposal = proposalStackMapping[activeStack - 1].proposalsMap[currentProposalAddress];\n            for (uint x = 0; x < currentProposal.voters.length; x++) {\n                token.transfer(currentProposal.voters[x], def.defaultVoteStake);\n            }\n        }\n    }\n   \n    function returnStakeToProposalOwners () internal {\n        token = eVotingToken(tokenAddress);\n        for(uint i = 0; i < proposalStackMapping[activeStack - 1].proposals.length; i++) {\n            address currentProposalAddress = proposalStackMapping[activeStack - 1].proposals[i];\n            Proposal memory currentProposal = proposalStackMapping[activeStack - 1].proposalsMap[currentProposalAddress];\n            token.transfer(currentProposal.proposalOwner, def.defaultProposalStake);\n        }\n    }\n} \n",
  "sourcePath": "/Users/rafaelzavala/Library/Mobile Documents/com~apple~CloudDocs/Desktop/proyectos/Alexis/StakenetSC/votingApp/src/contracts/NewVotingContract.sol",
  "compiler": {
    "name": "solc",
    "version": "0.5.16+commit.9c3226ce.Emscripten.clang"
  },
  "schemaVersion": "3.4.3",
  "updatedAt": "2021-10-08T23:23:27.162Z",
  "networkType": "ethereum",
  "devdoc": {
    "methods": {}
  },
  "userdoc": {
    "methods": {}
  }
}