{
  "contractName": "VotingContract",
  "abi": [
    {
      "inputs": [
        {
          "internalType": "address",
          "name": "_tokenAddress",
          "type": "address"
        }
      ],
      "payable": false,
      "stateMutability": "nonpayable",
      "type": "constructor"
    },
    {
      "anonymous": false,
      "inputs": [
        {
          "indexed": false,
          "internalType": "address",
          "name": "depositer",
          "type": "address"
        },
        {
          "indexed": false,
          "internalType": "uint256",
          "name": "tokenAmount",
          "type": "uint256"
        }
      ],
      "name": "tokensDeposited",
      "type": "event"
    },
    {
      "constant": true,
      "inputs": [
        {
          "internalType": "uint256",
          "name": "",
          "type": "uint256"
        }
      ],
      "name": "acceptedProposal",
      "outputs": [
        {
          "internalType": "address",
          "name": "",
          "type": "address"
        }
      ],
      "payable": false,
      "stateMutability": "view",
      "type": "function"
    },
    {
      "constant": true,
      "inputs": [],
      "name": "owner",
      "outputs": [
        {
          "internalType": "address",
          "name": "",
          "type": "address"
        }
      ],
      "payable": false,
      "stateMutability": "view",
      "type": "function"
    },
    {
      "constant": true,
      "inputs": [
        {
          "internalType": "uint256",
          "name": "",
          "type": "uint256"
        }
      ],
      "name": "proposalAddress",
      "outputs": [
        {
          "internalType": "address",
          "name": "",
          "type": "address"
        }
      ],
      "payable": false,
      "stateMutability": "view",
      "type": "function"
    },
    {
      "constant": true,
      "inputs": [],
      "name": "proposalCount",
      "outputs": [
        {
          "internalType": "uint256",
          "name": "",
          "type": "uint256"
        }
      ],
      "payable": false,
      "stateMutability": "view",
      "type": "function"
    },
    {
      "constant": true,
      "inputs": [
        {
          "internalType": "address",
          "name": "",
          "type": "address"
        }
      ],
      "name": "proposals",
      "outputs": [
        {
          "internalType": "uint256",
          "name": "voteCount",
          "type": "uint256"
        },
        {
          "internalType": "uint256",
          "name": "countYes",
          "type": "uint256"
        },
        {
          "internalType": "uint256",
          "name": "countNo",
          "type": "uint256"
        },
        {
          "internalType": "string",
          "name": "proposalName",
          "type": "string"
        },
        {
          "internalType": "string",
          "name": "proposalDesc",
          "type": "string"
        },
        {
          "internalType": "bool",
          "name": "proposalRegistered",
          "type": "bool"
        },
        {
          "internalType": "bool",
          "name": "accepted",
          "type": "bool"
        }
      ],
      "payable": false,
      "stateMutability": "view",
      "type": "function"
    },
    {
      "constant": true,
      "inputs": [
        {
          "internalType": "uint256",
          "name": "",
          "type": "uint256"
        }
      ],
      "name": "voterAddress",
      "outputs": [
        {
          "internalType": "address",
          "name": "",
          "type": "address"
        }
      ],
      "payable": false,
      "stateMutability": "view",
      "type": "function"
    },
    {
      "constant": true,
      "inputs": [],
      "name": "voterCount",
      "outputs": [
        {
          "internalType": "uint256",
          "name": "",
          "type": "uint256"
        }
      ],
      "payable": false,
      "stateMutability": "view",
      "type": "function"
    },
    {
      "constant": true,
      "inputs": [
        {
          "internalType": "address",
          "name": "",
          "type": "address"
        }
      ],
      "name": "voters",
      "outputs": [
        {
          "internalType": "uint256",
          "name": "numOfVotes",
          "type": "uint256"
        },
        {
          "internalType": "bool",
          "name": "voterRegistered",
          "type": "bool"
        }
      ],
      "payable": false,
      "stateMutability": "view",
      "type": "function"
    },
    {
      "constant": true,
      "inputs": [
        {
          "internalType": "uint256",
          "name": "",
          "type": "uint256"
        }
      ],
      "name": "yesVoters",
      "outputs": [
        {
          "internalType": "address",
          "name": "",
          "type": "address"
        }
      ],
      "payable": false,
      "stateMutability": "view",
      "type": "function"
    },
    {
      "constant": false,
      "inputs": [
        {
          "internalType": "string",
          "name": "_proposalName",
          "type": "string"
        },
        {
          "internalType": "string",
          "name": "_proposalDesc",
          "type": "string"
        }
      ],
      "name": "registerProposal",
      "outputs": [],
      "payable": false,
      "stateMutability": "nonpayable",
      "type": "function"
    },
    {
      "constant": false,
      "inputs": [],
      "name": "registerVoter",
      "outputs": [],
      "payable": false,
      "stateMutability": "nonpayable",
      "type": "function"
    },
    {
      "constant": false,
      "inputs": [
        {
          "internalType": "address",
          "name": "prop",
          "type": "address"
        }
      ],
      "name": "voteInFavour",
      "outputs": [],
      "payable": false,
      "stateMutability": "nonpayable",
      "type": "function"
    },
    {
      "constant": false,
      "inputs": [
        {
          "internalType": "address",
          "name": "prop",
          "type": "address"
        }
      ],
      "name": "voteInRejection",
      "outputs": [],
      "payable": false,
      "stateMutability": "nonpayable",
      "type": "function"
    },
    {
      "constant": false,
      "inputs": [],
      "name": "winningProposal",
      "outputs": [
        {
          "internalType": "address",
          "name": "",
          "type": "address"
        }
      ],
      "payable": false,
      "stateMutability": "nonpayable",
      "type": "function"
    }
  ],
  "bytecode": "0x60806040526000600455600060055534801561001a57600080fd5b506040516129193803806129198339818101604052602081101561003d57600080fd5b810190808051906020019092919050505033600660006101000a81548173ffffffffffffffffffffffffffffffffffffffff021916908373ffffffffffffffffffffffffffffffffffffffff16021790555080600760006101000a81548173ffffffffffffffffffffffffffffffffffffffff021916908373ffffffffffffffffffffffffffffffffffffffff16021790555050612839806100e06000396000f3fe608060405234801561001057600080fd5b50600436106100ea5760003560e01c80637960cb261161008c578063a3ec138d11610066578063a3ec138d14610643578063da35c664146106a6578063ecb617d9146106c4578063f74a0ee2146106ce576100ea565b80637960cb261461051d57806389107dc81461058b5780638da5cb5b146105f9576100ea565b806342169e48116100c857806342169e48146103d95780634812c7e6146103f75780635d55f2de14610465578063609ff1bd146104d3576100ea565b80631ee5eda3146100ef5780633341b44514610241578063373ac67814610395575b600080fd5b61023f6004803603604081101561010557600080fd5b810190808035906020019064010000000081111561012257600080fd5b82018360208201111561013457600080fd5b8035906020019184600183028401116401000000008311171561015657600080fd5b91908080601f016020809104026020016040519081016040528093929190818152602001838380828437600081840152601f19601f820116905080830192505050505050509192919290803590602001906401000000008111156101b957600080fd5b8201836020820111156101cb57600080fd5b803590602001918460018302840111640100000000831117156101ed57600080fd5b91908080601f016020809104026020016040519081016040528093929190818152602001838380828437600081840152601f19601f820116905080830192505050505050509192919290505050610712565b005b6102836004803603602081101561025757600080fd5b81019080803573ffffffffffffffffffffffffffffffffffffffff169060200190929190505050610a94565b6040518088815260200187815260200186815260200180602001806020018515151515815260200184151515158152602001838103835287818151815260200191508051906020019080838360005b838110156102ed5780820151818401526020810190506102d2565b50505050905090810190601f16801561031a5780820380516001836020036101000a031916815260200191505b50838103825286818151815260200191508051906020019080838360005b83811015610353578082015181840152602081019050610338565b50505050905090810190601f1680156103805780820380516001836020036101000a031916815260200191505b50995050505050505050505060405180910390f35b6103d7600480360360208110156103ab57600080fd5b81019080803573ffffffffffffffffffffffffffffffffffffffff169060200190929190505050610c20565b005b6103e161145a565b6040518082815260200191505060405180910390f35b6104236004803603602081101561040d57600080fd5b8101908080359060200190929190505050611460565b604051808273ffffffffffffffffffffffffffffffffffffffff1673ffffffffffffffffffffffffffffffffffffffff16815260200191505060405180910390f35b6104916004803603602081101561047b57600080fd5b810190808035906020019092919050505061149c565b604051808273ffffffffffffffffffffffffffffffffffffffff1673ffffffffffffffffffffffffffffffffffffffff16815260200191505060405180910390f35b6104db6114d8565b604051808273ffffffffffffffffffffffffffffffffffffffff1673ffffffffffffffffffffffffffffffffffffffff16815260200191505060405180910390f35b6105496004803603602081101561053357600080fd5b8101908080359060200190929190505050611972565b604051808273ffffffffffffffffffffffffffffffffffffffff1673ffffffffffffffffffffffffffffffffffffffff16815260200191505060405180910390f35b6105b7600480360360208110156105a157600080fd5b81019080803590602001909291905050506119ae565b604051808273ffffffffffffffffffffffffffffffffffffffff1673ffffffffffffffffffffffffffffffffffffffff16815260200191505060405180910390f35b6106016119ea565b604051808273ffffffffffffffffffffffffffffffffffffffff1673ffffffffffffffffffffffffffffffffffffffff16815260200191505060405180910390f35b6106856004803603602081101561065957600080fd5b81019080803573ffffffffffffffffffffffffffffffffffffffff169060200190929190505050611a10565b60405180838152602001821515151581526020019250505060405180910390f35b6106ae611a41565b6040518082815260200191505060405180910390f35b6106cc611a47565b005b610710600480360360208110156106e457600080fd5b81019080803573ffffffffffffffffffffffffffffffffffffffff169060200190929190505050611d0a565b005b600115156000803373ffffffffffffffffffffffffffffffffffffffff1673ffffffffffffffffffffffffffffffffffffffff168152602001908152602001600020600a0160009054906101000a900460ff16151514156107be576040517f08c379a00000000000000000000000000000000000000000000000000000000081526004018080602001828103825260288152602001806127936028913960400191505060405180910390fd5b60008090505b6003805490508110156108b7573373ffffffffffffffffffffffffffffffffffffffff16600382815481106107f557fe5b9060005260206000200160009054906101000a900473ffffffffffffffffffffffffffffffffffffffff1673ffffffffffffffffffffffffffffffffffffffff1614156108aa576040517f08c379a00000000000000000000000000000000000000000000000000000000081526004018080602001828103825260208152602001807f566f7465722063616e6e6f7420726567697374657220612070726f706f73616c81525060200191505060405180910390fd5b80806001019150506107c4565b5060023390806001815401808255809150509060018203906000526020600020016000909192909190916101000a81548173ffffffffffffffffffffffffffffffffffffffff021916908373ffffffffffffffffffffffffffffffffffffffff16021790555050816000803373ffffffffffffffffffffffffffffffffffffffff1673ffffffffffffffffffffffffffffffffffffffff16815260200190815260200160002060080190805190602001906109739291906126ed565b50806000803373ffffffffffffffffffffffffffffffffffffffff1673ffffffffffffffffffffffffffffffffffffffff16815260200190815260200160002060090190805190602001906109c99291906126ed565b5060008060003373ffffffffffffffffffffffffffffffffffffffff1673ffffffffffffffffffffffffffffffffffffffff168152602001908152602001600020600a0160016101000a81548160ff02191690831515021790555060016000803373ffffffffffffffffffffffffffffffffffffffff1673ffffffffffffffffffffffffffffffffffffffff168152602001908152602001600020600a0160006101000a81548160ff0219169083151502179055506005600081548092919060010191905055505050565b6000602052806000526040600020600091509050806003015490806004015490806005015490806008018054600181600116156101000203166002900480601f016020809104026020016040519081016040528092919081815260200182805460018160011615610100020316600290048015610b525780601f10610b2757610100808354040283529160200191610b52565b820191906000526020600020905b815481529060010190602001808311610b3557829003601f168201915b505050505090806009018054600181600116156101000203166002900480601f016020809104026020016040519081016040528092919081815260200182805460018160011615610100020316600290048015610bf05780601f10610bc557610100808354040283529160200191610bf0565b820191906000526020600020905b815481529060010190602001808311610bd357829003601f168201915b50505050509080600a0160009054906101000a900460ff169080600a0160019054906101000a900460ff16905087565b60008190508073ffffffffffffffffffffffffffffffffffffffff163373ffffffffffffffffffffffffffffffffffffffff161415610cc7576040517f08c379a000000000000000000000000000000000000000000000000000000000815260040180806020018281038252601c8152602001807f596f752063616e6e6f7420766f746520666f7220796f757273656c660000000081525060200191505060405180910390fd5b60008090505b600280549050811015610da3573373ffffffffffffffffffffffffffffffffffffffff1660028281548110610cfe57fe5b9060005260206000200160009054906101000a900473ffffffffffffffffffffffffffffffffffffffff1673ffffffffffffffffffffffffffffffffffffffff161415610d96576040517f08c379a00000000000000000000000000000000000000000000000000000000081526004018080602001828103825260218152602001806127e46021913960400191505060405180910390fd5b8080600101915050610ccd565b5060011515600160003373ffffffffffffffffffffffffffffffffffffffff1673ffffffffffffffffffffffffffffffffffffffff16815260200190815260200160002060020160009054906101000a900460ff16151514610e6d576040517f08c379a00000000000000000000000000000000000000000000000000000000081526004018080602001828103825260178152602001807f566f746572206973206e6f74207265676973746572656400000000000000000081525060200191505060405180910390fd5b60008090505b600380549050811015610f66578173ffffffffffffffffffffffffffffffffffffffff1660038281548110610ea457fe5b9060005260206000200160009054906101000a900473ffffffffffffffffffffffffffffffffffffffff1673ffffffffffffffffffffffffffffffffffffffff161415610f59576040517f08c379a00000000000000000000000000000000000000000000000000000000081526004018080602001828103825260208152602001807f566f7465722063616e6e6f74206361737420766f746520746f20697473656c6681525060200191505060405180910390fd5b8080600101915050610e73565b5060008090505b6000808373ffffffffffffffffffffffffffffffffffffffff1673ffffffffffffffffffffffffffffffffffffffff168152602001908152602001600020600201805490508110156110de573373ffffffffffffffffffffffffffffffffffffffff166000808473ffffffffffffffffffffffffffffffffffffffff1673ffffffffffffffffffffffffffffffffffffffff168152602001908152602001600020600201828154811061101c57fe5b9060005260206000200160009054906101000a900473ffffffffffffffffffffffffffffffffffffffff1673ffffffffffffffffffffffffffffffffffffffff1614156110d1576040517f08c379a000000000000000000000000000000000000000000000000000000000815260040180806020018281038252601d8152602001807f566f7465722068617320616c72656164792063617374656420766f746500000081525060200191505060405180910390fd5b8080600101915050610f6d565b506000808273ffffffffffffffffffffffffffffffffffffffff1673ffffffffffffffffffffffffffffffffffffffff1681526020019081526020016000206002013390806001815401808255809150509060018203906000526020600020016000909192909190916101000a81548173ffffffffffffffffffffffffffffffffffffffff021916908373ffffffffffffffffffffffffffffffffffffffff16021790555050600160003373ffffffffffffffffffffffffffffffffffffffff1673ffffffffffffffffffffffffffffffffffffffff1681526020019081526020016000206000018190806001815401808255809150509060018203906000526020600020016000909192909190916101000a81548173ffffffffffffffffffffffffffffffffffffffff021916908373ffffffffffffffffffffffffffffffffffffffff160217905550506000808273ffffffffffffffffffffffffffffffffffffffff1673ffffffffffffffffffffffffffffffffffffffff1681526020019081526020016000206001013390806001815401808255809150509060018203906000526020600020016000909192909190916101000a81548173ffffffffffffffffffffffffffffffffffffffff021916908373ffffffffffffffffffffffffffffffffffffffff1602179055505060016000808373ffffffffffffffffffffffffffffffffffffffff1673ffffffffffffffffffffffffffffffffffffffff1681526020019081526020016000206003016000828254019250508190555060016000808373ffffffffffffffffffffffffffffffffffffffff1673ffffffffffffffffffffffffffffffffffffffff1681526020019081526020016000206005016000828254019250508190555060016000808373ffffffffffffffffffffffffffffffffffffffff1673ffffffffffffffffffffffffffffffffffffffff16815260200190815260200160002060070160003373ffffffffffffffffffffffffffffffffffffffff1673ffffffffffffffffffffffffffffffffffffffff16815260200190815260200160002060006101000a81548160ff02191690831515021790555060018060003373ffffffffffffffffffffffffffffffffffffffff1673ffffffffffffffffffffffffffffffffffffffff168152602001908152602001600020600101600082825401925050819055505050565b60045481565b600a818154811061146d57fe5b906000526020600020016000915054906101000a900473ffffffffffffffffffffffffffffffffffffffff1681565b600381815481106114a957fe5b906000526020600020016000915054906101000a900473ffffffffffffffffffffffffffffffffffffffff1681565b6000600660009054906101000a900473ffffffffffffffffffffffffffffffffffffffff1673ffffffffffffffffffffffffffffffffffffffff163373ffffffffffffffffffffffffffffffffffffffff161461153457600080fd5b60008090505b6002805490508160ff16101561178a5760008060028360ff168154811061155d57fe5b9060005260206000200160009054906101000a900473ffffffffffffffffffffffffffffffffffffffff1673ffffffffffffffffffffffffffffffffffffffff1673ffffffffffffffffffffffffffffffffffffffff1681526020019081526020016000206005015460008060028460ff16815481106115d957fe5b9060005260206000200160009054906101000a900473ffffffffffffffffffffffffffffffffffffffff1673ffffffffffffffffffffffffffffffffffffffff1673ffffffffffffffffffffffffffffffffffffffff16815260200190815260200160002060040154111561177d57600960028260ff168154811061165a57fe5b9060005260206000200160009054906101000a900473ffffffffffffffffffffffffffffffffffffffff1690806001815401808255809150509060018203906000526020600020016000909192909190916101000a81548173ffffffffffffffffffffffffffffffffffffffff021916908373ffffffffffffffffffffffffffffffffffffffff16021790555050600160008060028460ff16815481106116fd57fe5b9060005260206000200160009054906101000a900473ffffffffffffffffffffffffffffffffffffffff1673ffffffffffffffffffffffffffffffffffffffff1673ffffffffffffffffffffffffffffffffffffffff168152602001908152602001600020600a0160016101000a81548160ff0219169083151502179055505b808060010191505061153a565b5060008090505b6009805490508160ff16101561196e5760008090505b60008060098460ff16815481106117ba57fe5b9060005260206000200160009054906101000a900473ffffffffffffffffffffffffffffffffffffffff1673ffffffffffffffffffffffffffffffffffffffff1673ffffffffffffffffffffffffffffffffffffffff168152602001908152602001600020600001805490508160ff16101561195657600a60008060098560ff168154811061184557fe5b9060005260206000200160009054906101000a900473ffffffffffffffffffffffffffffffffffffffff1673ffffffffffffffffffffffffffffffffffffffff1673ffffffffffffffffffffffffffffffffffffffff1681526020019081526020016000206000018260ff16815481106118bb57fe5b9060005260206000200160009054906101000a900473ffffffffffffffffffffffffffffffffffffffff1690806001815401808255809150509060018203906000526020600020016000909192909190916101000a81548173ffffffffffffffffffffffffffffffffffffffff021916908373ffffffffffffffffffffffffffffffffffffffff1602179055505080806001019150506117a7565b50611961600a612544565b8080600101915050611791565b5090565b6009818154811061197f57fe5b906000526020600020016000915054906101000a900473ffffffffffffffffffffffffffffffffffffffff1681565b600281815481106119bb57fe5b906000526020600020016000915054906101000a900473ffffffffffffffffffffffffffffffffffffffff1681565b600660009054906101000a900473ffffffffffffffffffffffffffffffffffffffff1681565b60016020528060005260406000206000915090508060010154908060020160009054906101000a900460ff16905082565b60055481565b60011515600160003373ffffffffffffffffffffffffffffffffffffffff1673ffffffffffffffffffffffffffffffffffffffff16815260200190815260200160002060020160009054906101000a900460ff1615151415611b11576040517f08c379a000000000000000000000000000000000000000000000000000000000815260040180806020018281038252601b8152602001807f566f74657220697320616c72656164792072656769737465726564000000000081525060200191505060405180910390fd5b60008090505b600280549050811015611bed573373ffffffffffffffffffffffffffffffffffffffff1660028281548110611b4857fe5b9060005260206000200160009054906101000a900473ffffffffffffffffffffffffffffffffffffffff1673ffffffffffffffffffffffffffffffffffffffff161415611be0576040517f08c379a00000000000000000000000000000000000000000000000000000000081526004018080602001828103825260298152602001806127bb6029913960400191505060405180910390fd5b8080600101915050611b17565b5060033390806001815401808255809150509060018203906000526020600020016000909192909190916101000a81548173ffffffffffffffffffffffffffffffffffffffff021916908373ffffffffffffffffffffffffffffffffffffffff160217905550506000600160003373ffffffffffffffffffffffffffffffffffffffff1673ffffffffffffffffffffffffffffffffffffffff1681526020019081526020016000206001018190555060018060003373ffffffffffffffffffffffffffffffffffffffff1673ffffffffffffffffffffffffffffffffffffffff16815260200190815260200160002060020160006101000a81548160ff021916908315150217905550600460008154809291906001019190505550565b60008190508073ffffffffffffffffffffffffffffffffffffffff163373ffffffffffffffffffffffffffffffffffffffff161415611db1576040517f08c379a000000000000000000000000000000000000000000000000000000000815260040180806020018281038252601c8152602001807f596f752063616e6e6f7420766f746520666f7220796f757273656c660000000081525060200191505060405180910390fd5b60008090505b600280549050811015611e8d573373ffffffffffffffffffffffffffffffffffffffff1660028281548110611de857fe5b9060005260206000200160009054906101000a900473ffffffffffffffffffffffffffffffffffffffff1673ffffffffffffffffffffffffffffffffffffffff161415611e80576040517f08c379a00000000000000000000000000000000000000000000000000000000081526004018080602001828103825260218152602001806127e46021913960400191505060405180910390fd5b8080600101915050611db7565b5060011515600160003373ffffffffffffffffffffffffffffffffffffffff1673ffffffffffffffffffffffffffffffffffffffff16815260200190815260200160002060020160009054906101000a900460ff16151514611f57576040517f08c379a00000000000000000000000000000000000000000000000000000000081526004018080602001828103825260178152602001807f566f746572206973206e6f74207265676973746572656400000000000000000081525060200191505060405180910390fd5b60008090505b600380549050811015612050578173ffffffffffffffffffffffffffffffffffffffff1660038281548110611f8e57fe5b9060005260206000200160009054906101000a900473ffffffffffffffffffffffffffffffffffffffff1673ffffffffffffffffffffffffffffffffffffffff161415612043576040517f08c379a00000000000000000000000000000000000000000000000000000000081526004018080602001828103825260208152602001807f566f7465722063616e6e6f74206361737420766f746520746f20697473656c6681525060200191505060405180910390fd5b8080600101915050611f5d565b5060008090505b6000808373ffffffffffffffffffffffffffffffffffffffff1673ffffffffffffffffffffffffffffffffffffffff168152602001908152602001600020600201805490508110156121c8573373ffffffffffffffffffffffffffffffffffffffff166000808473ffffffffffffffffffffffffffffffffffffffff1673ffffffffffffffffffffffffffffffffffffffff168152602001908152602001600020600201828154811061210657fe5b9060005260206000200160009054906101000a900473ffffffffffffffffffffffffffffffffffffffff1673ffffffffffffffffffffffffffffffffffffffff1614156121bb576040517f08c379a000000000000000000000000000000000000000000000000000000000815260040180806020018281038252601d8152602001807f566f7465722068617320616c72656164792063617374656420766f746500000081525060200191505060405180910390fd5b8080600101915050612057565b506000808273ffffffffffffffffffffffffffffffffffffffff1673ffffffffffffffffffffffffffffffffffffffff1681526020019081526020016000206002013390806001815401808255809150509060018203906000526020600020016000909192909190916101000a81548173ffffffffffffffffffffffffffffffffffffffff021916908373ffffffffffffffffffffffffffffffffffffffff16021790555050600160003373ffffffffffffffffffffffffffffffffffffffff1673ffffffffffffffffffffffffffffffffffffffff1681526020019081526020016000206000018190806001815401808255809150509060018203906000526020600020016000909192909190916101000a81548173ffffffffffffffffffffffffffffffffffffffff021916908373ffffffffffffffffffffffffffffffffffffffff160217905550506000808273ffffffffffffffffffffffffffffffffffffffff1673ffffffffffffffffffffffffffffffffffffffff1681526020019081526020016000206000013390806001815401808255809150509060018203906000526020600020016000909192909190916101000a81548173ffffffffffffffffffffffffffffffffffffffff021916908373ffffffffffffffffffffffffffffffffffffffff1602179055505060016000808373ffffffffffffffffffffffffffffffffffffffff1673ffffffffffffffffffffffffffffffffffffffff1681526020019081526020016000206003016000828254019250508190555060016000808373ffffffffffffffffffffffffffffffffffffffff1673ffffffffffffffffffffffffffffffffffffffff1681526020019081526020016000206004016000828254019250508190555060016000808373ffffffffffffffffffffffffffffffffffffffff1673ffffffffffffffffffffffffffffffffffffffff16815260200190815260200160002060060160003373ffffffffffffffffffffffffffffffffffffffff1673ffffffffffffffffffffffffffffffffffffffff16815260200190815260200160002060006101000a81548160ff02191690831515021790555060018060003373ffffffffffffffffffffffffffffffffffffffff1673ffffffffffffffffffffffffffffffffffffffff168152602001908152602001600020600101600082825401925050819055505050565b600760009054906101000a900473ffffffffffffffffffffffffffffffffffffffff16600860006101000a81548173ffffffffffffffffffffffffffffffffffffffff021916908373ffffffffffffffffffffffffffffffffffffffff16021790555060008090505b81805490508160ff1610156126e957600860009054906101000a900473ffffffffffffffffffffffffffffffffffffffff1673ffffffffffffffffffffffffffffffffffffffff1663a9059cbb838360ff168154811061260957fe5b9060005260206000200160009054906101000a900473ffffffffffffffffffffffffffffffffffffffff166103e86040518363ffffffff1660e01b8152600401808373ffffffffffffffffffffffffffffffffffffffff1673ffffffffffffffffffffffffffffffffffffffff16815260200182815260200192505050602060405180830381600087803b1580156126a057600080fd5b505af11580156126b4573d6000803e3d6000fd5b505050506040513d60208110156126ca57600080fd5b81019080805190602001909291905050505080806001019150506125ad565b5050565b828054600181600116156101000203166002900490600052602060002090601f016020900481019282601f1061272e57805160ff191683800117855561275c565b8280016001018555821561275c579182015b8281111561275b578251825591602001919060010190612740565b5b509050612769919061276d565b5090565b61278f91905b8082111561278b576000816000905550600101612773565b5090565b9056fe596f7520616c72656164792068617665206f6e6520726567697374657265642070726f706f73616c50726f706f73616c206f776e65722063616e6e6f74207265676973746572206173206120766f7465724f776e6572206f6620616e792070726f706f73616c2063616e6e6f7420766f7465a265627a7a72315820505ee015dfe246badc1c6b30d6991973bc2c6bd1bd8f50f6fab6ca5dc9a9167464736f6c63430005100032",
  "source": "// SPDX-License-Identifier: MIT\r\npragma solidity >=0.4.0 <0.9.0;\r\nimport \"./eVotingToken.sol\";\r\n\r\ncontract VotingContract {\r\n    struct Voter {\r\n        address[] proposal;\r\n        uint numOfVotes;\r\n        bool voterRegistered;\r\n    }\r\n    struct Proposal {\r\n        address[] votersInFavour;\r\n        address[] votersInRejection;\r\n        address[] voter;\r\n        uint voteCount;\r\n        uint countYes;\r\n        uint countNo;\r\n        mapping(address => bool) castYes;\r\n        mapping(address => bool) castNo;\r\n        string proposalName;\r\n        string proposalDesc;\r\n        bool proposalRegistered;\r\n        bool accepted;\r\n    }\r\n\r\n    mapping(address => Proposal) public proposals;\r\n    mapping(address => Voter) public voters;\r\n    address[] public proposalAddress;\r\n    address[] public voterAddress;\r\n    uint public voterCount = 0;\r\n    uint public proposalCount = 0;\r\n    address public owner;\r\n    address private tokenAddress;\r\n    eVotingToken token;\r\n    address[] public acceptedProposal;\r\n    address[] public yesVoters;\r\n\r\n    \r\n    event tokensDeposited (\r\n        address depositer, \r\n        uint tokenAmount\r\n    );        \r\n    \r\n    \r\n    constructor(address _tokenAddress) public {\r\n        owner = msg.sender;\r\n        tokenAddress = _tokenAddress;\r\n    }\r\n    \r\n    modifier onlyOwner() {\r\n        require(msg.sender == owner);\r\n        _;\r\n    }\r\n    \r\n    function registerProposal(string memory _proposalName, string memory _proposalDesc) public {\r\n\r\n        require(proposals[msg.sender].proposalRegistered != true, \"You already have one registered proposal\");\r\n       \r\n        // Check if the proposal owner is a voter\r\n        for (uint i = 0; i<voterAddress.length; i++ ){\r\n            \r\n            require(voterAddress[i] != msg.sender, \"Voter cannot register a proposal\");\r\n        }\r\n    \r\n        // Add voter to the proposalList    \r\n        proposalAddress.push(msg.sender);\r\n        \r\n        proposals[msg.sender].proposalName = _proposalName;\r\n        proposals[msg.sender].proposalDesc = _proposalDesc;\r\n        proposals[msg.sender].accepted = false;\r\n        proposals[msg.sender].proposalRegistered = true;\r\n         \r\n        proposalCount++;\r\n    }\r\n    \r\n    function registerVoter() public {\r\n        \r\n        require(voters[msg.sender].voterRegistered != true, \"Voter is already registered\");\r\n        \r\n        // Check if the voter is a proposal owner\r\n        for (uint i = 0; i<proposalAddress.length; i++ ){\r\n            \r\n            require(proposalAddress[i] != msg.sender, \"Proposal owner cannot register as a voter\");\r\n        }\r\n    \r\n        // Add voter to the voterList    \r\n        voterAddress.push(msg.sender);\r\n    \r\n        voters[msg.sender].numOfVotes = 0;\r\n        voters[msg.sender].voterRegistered = true;\r\n        \r\n        voterCount++;\r\n    }\r\n    \r\n    function voteInFavour(address prop) public {\r\n        address _proposalAddress = prop;\r\n        require(msg.sender != _proposalAddress, \"You cannot vote for yourself\");\r\n    \r\n        // If voter is a proposal owner, revert()\r\n        for ( uint i = 0; i<proposalAddress.length; i++ ){\r\n            \r\n            require(proposalAddress[i] != msg.sender, \"Owner of any proposal cannot vote\");    \r\n        }\r\n        \r\n        // Check if we have any voters registered, revert()\r\n            \r\n            // require(voterAddress.length > 0, \"Not voters yet\");\r\n\r\n            require(voters[msg.sender].voterRegistered == true, \"Voter is not registered\");\r\n        // for (uint j = 0; j < voterAddress.length; j++ ){\r\n        //     require(msg.sender == voterAddress[j], \"Voter does not exist\");\r\n        // }\r\n        \r\n        for (uint k = 0; k < voterAddress.length; k++ ){\r\n        \r\n        // Check if the Voter is casting vote to itself, revert()\r\n            \r\n            require(voterAddress[k] != _proposalAddress, \"Voter cannot cast vote to itself\");\r\n        }        \r\n      \r\n        for (uint l = 0; l < proposals[_proposalAddress].voter.length; l++ ){\r\n        \r\n          // Check if voter has already casted vote for this proposal\r\n\r\n                require(proposals[_proposalAddress].voter[l] != msg.sender, \"Voter has already casted vote\" );\r\n        }\r\n        \r\n        // Cast the vote for this proposal\r\n                proposals[_proposalAddress].voter.push(msg.sender);   \r\n                voters[msg.sender].proposal.push(_proposalAddress);\r\n                proposals[_proposalAddress].votersInFavour.push(msg.sender);\r\n                proposals[_proposalAddress].voteCount += 1;\r\n                proposals[_proposalAddress].countYes += 1;\r\n                proposals[_proposalAddress].castYes[msg.sender] = true;\r\n                voters[msg.sender].numOfVotes += 1;\r\n        }\r\n        \r\n    function voteInRejection(address prop) public {\r\n        address _proposalAddress = prop;\r\n        require(msg.sender != _proposalAddress, \"You cannot vote for yourself\");\r\n    \r\n        // If voter is a proposal owner, revert()\r\n        for ( uint i = 0; i<proposalAddress.length; i++ ){\r\n            \r\n            require(proposalAddress[i] != msg.sender, \"Owner of any proposal cannot vote\");    \r\n        }\r\n        \r\n        // Check if we have any voters registered, revert()\r\n            \r\n            // require(voterAddress.length > 0, \"Not voters yet\");\r\n\r\n            require(voters[msg.sender].voterRegistered == true, \"Voter is not registered\");\r\n        \r\n        for (uint k = 0; k < voterAddress.length; k++ ){\r\n        \r\n        // Check if the Voter is casting vote to itself, revert()\r\n            \r\n            require(voterAddress[k] != _proposalAddress, \"Voter cannot cast vote to itself\");\r\n        }        \r\n      \r\n        for (uint l = 0; l < proposals[_proposalAddress].voter.length; l++ ){\r\n        \r\n          // Check if voter has already casted vote for this proposal\r\n\r\n                require(proposals[_proposalAddress].voter[l] != msg.sender, \"Voter has already casted vote\" );\r\n        }\r\n        \r\n        // Cast the vote for this proposal\r\n                proposals[_proposalAddress].voter.push(msg.sender);   \r\n                voters[msg.sender].proposal.push(_proposalAddress);\r\n                proposals[_proposalAddress].votersInRejection.push(msg.sender);\r\n                proposals[_proposalAddress].voteCount += 1;\r\n                proposals[_proposalAddress].countNo += 1;\r\n                proposals[_proposalAddress].castNo[msg.sender] = true;\r\n                voters[msg.sender].numOfVotes += 1;\r\n        }\r\n    \r\n    function winningProposal() public onlyOwner returns (address) {\r\n        for (uint8 prop = 0; prop < proposalAddress.length; prop++)\r\n            if (proposals[proposalAddress[prop]].countYes > proposals[proposalAddress[prop]].countNo) {\r\n                acceptedProposal.push(proposalAddress[prop]);\r\n                proposals[proposalAddress[prop]].accepted = true;\r\n            }\r\n        for (uint8 acc = 0; acc < acceptedProposal.length; acc++) {    \r\n            for (uint8 user = 0; user < proposals[acceptedProposal[acc]].votersInFavour.length; user++) {\r\n                 yesVoters.push(proposals[acceptedProposal[acc]].votersInFavour[user]);\r\n            }        \r\n            depositTokens(yesVoters);\r\n        }\r\n    }\r\n    \r\n    function depositTokens(address[] storage yVoters) internal {\r\n        token = eVotingToken(tokenAddress);\r\n        \r\n        for (uint8 u = 0; u < yVoters.length; u++) {\r\n        // Add ERC20 tokens to user address\r\n                token.transfer(yVoters[u], 1000);\r\n        }\r\n    }\r\n} ",
  "sourcePath": "/Users/rafaelzavala/Desktop/proyectos/Alexis/StakenetSC/votingApp/src/contracts/VotingContract.sol",
  "compiler": {
    "name": "solc",
    "version": "0.5.16+commit.9c3226ce.Emscripten.clang"
  },
  "schemaVersion": "3.4.3",
  "updatedAt": "2021-10-07T00:37:09.612Z",
  "devdoc": {
    "methods": {}
  },
  "userdoc": {
    "methods": {}
  }
}